{
  "address": "0xD8B5B57C69D06b8Eb70A7ec959F08eD720341cFA",
  "abi": [
    {
      "inputs": [],
      "stateMutability": "nonpayable",
      "type": "constructor"
    },
    {
      "anonymous": false,
      "inputs": [
        {
          "indexed": false,
          "internalType": "address",
          "name": "previousAdmin",
          "type": "address"
        },
        {
          "indexed": false,
          "internalType": "address",
          "name": "newAdmin",
          "type": "address"
        }
      ],
      "name": "AdminChanged",
      "type": "event"
    },
    {
      "anonymous": false,
      "inputs": [
        {
          "indexed": true,
          "internalType": "address",
          "name": "owner",
          "type": "address"
        },
        {
          "indexed": true,
          "internalType": "address",
          "name": "approved",
          "type": "address"
        },
        {
          "indexed": true,
          "internalType": "uint256",
          "name": "tokenId",
          "type": "uint256"
        }
      ],
      "name": "Approval",
      "type": "event"
    },
    {
      "anonymous": false,
      "inputs": [
        {
          "indexed": true,
          "internalType": "address",
          "name": "owner",
          "type": "address"
        },
        {
          "indexed": true,
          "internalType": "address",
          "name": "operator",
          "type": "address"
        },
        {
          "indexed": false,
          "internalType": "bool",
          "name": "approved",
          "type": "bool"
        }
      ],
      "name": "ApprovalForAll",
      "type": "event"
    },
    {
      "anonymous": false,
      "inputs": [
        {
          "indexed": true,
          "internalType": "address",
          "name": "beacon",
          "type": "address"
        }
      ],
      "name": "BeaconUpgraded",
      "type": "event"
    },
    {
      "anonymous": false,
      "inputs": [
        {
          "indexed": false,
          "internalType": "uint8",
          "name": "version",
          "type": "uint8"
        }
      ],
      "name": "Initialized",
      "type": "event"
    },
    {
      "anonymous": false,
      "inputs": [
        {
          "indexed": true,
          "internalType": "address",
          "name": "previousOwner",
          "type": "address"
        },
        {
          "indexed": true,
          "internalType": "address",
          "name": "newOwner",
          "type": "address"
        }
      ],
      "name": "OwnershipTransferred",
      "type": "event"
    },
    {
      "anonymous": false,
      "inputs": [
        {
          "indexed": false,
          "internalType": "address",
          "name": "account",
          "type": "address"
        }
      ],
      "name": "Paused",
      "type": "event"
    },
    {
      "anonymous": false,
      "inputs": [
        {
          "indexed": false,
          "internalType": "address",
          "name": "receiver",
          "type": "address"
        },
        {
          "indexed": false,
          "internalType": "uint256",
          "name": "tokenId",
          "type": "uint256"
        },
        {
          "indexed": false,
          "internalType": "uint256",
          "name": "projectTokenId",
          "type": "uint256"
        },
        {
          "indexed": false,
          "internalType": "uint64",
          "name": "startTime",
          "type": "uint64"
        }
      ],
      "name": "ProjectVintageMinted",
      "type": "event"
    },
    {
      "anonymous": false,
      "inputs": [
        {
          "indexed": false,
          "internalType": "uint256",
          "name": "tokenId",
          "type": "uint256"
        }
      ],
      "name": "ProjectVintageUpdated",
      "type": "event"
    },
    {
      "anonymous": false,
      "inputs": [
        {
          "indexed": true,
          "internalType": "bytes32",
          "name": "role",
          "type": "bytes32"
        },
        {
          "indexed": true,
          "internalType": "bytes32",
          "name": "previousAdminRole",
          "type": "bytes32"
        },
        {
          "indexed": true,
          "internalType": "bytes32",
          "name": "newAdminRole",
          "type": "bytes32"
        }
      ],
      "name": "RoleAdminChanged",
      "type": "event"
    },
    {
      "anonymous": false,
      "inputs": [
        {
          "indexed": true,
          "internalType": "bytes32",
          "name": "role",
          "type": "bytes32"
        },
        {
          "indexed": true,
          "internalType": "address",
          "name": "account",
          "type": "address"
        },
        {
          "indexed": true,
          "internalType": "address",
          "name": "sender",
          "type": "address"
        }
      ],
      "name": "RoleGranted",
      "type": "event"
    },
    {
      "anonymous": false,
      "inputs": [
        {
          "indexed": true,
          "internalType": "bytes32",
          "name": "role",
          "type": "bytes32"
        },
        {
          "indexed": true,
          "internalType": "address",
          "name": "account",
          "type": "address"
        },
        {
          "indexed": true,
          "internalType": "address",
          "name": "sender",
          "type": "address"
        }
      ],
      "name": "RoleRevoked",
      "type": "event"
    },
    {
      "anonymous": false,
      "inputs": [
        {
          "indexed": true,
          "internalType": "address",
          "name": "from",
          "type": "address"
        },
        {
          "indexed": true,
          "internalType": "address",
          "name": "to",
          "type": "address"
        },
        {
          "indexed": true,
          "internalType": "uint256",
          "name": "tokenId",
          "type": "uint256"
        }
      ],
      "name": "Transfer",
      "type": "event"
    },
    {
      "anonymous": false,
      "inputs": [
        {
          "indexed": false,
          "internalType": "address",
          "name": "account",
          "type": "address"
        }
      ],
      "name": "Unpaused",
      "type": "event"
    },
    {
      "anonymous": false,
      "inputs": [
        {
          "indexed": true,
          "internalType": "address",
          "name": "implementation",
          "type": "address"
        }
      ],
      "name": "Upgraded",
      "type": "event"
    },
    {
      "inputs": [],
      "name": "DEFAULT_ADMIN_ROLE",
      "outputs": [
        {
          "internalType": "bytes32",
          "name": "",
          "type": "bytes32"
        }
      ],
      "stateMutability": "view",
      "type": "function"
    },
    {
      "inputs": [],
      "name": "MANAGER_ROLE",
      "outputs": [
        {
          "internalType": "bytes32",
          "name": "",
          "type": "bytes32"
        }
      ],
      "stateMutability": "view",
      "type": "function"
    },
    {
      "inputs": [],
      "name": "VERSION",
      "outputs": [
        {
          "internalType": "string",
          "name": "",
          "type": "string"
        }
      ],
      "stateMutability": "view",
      "type": "function"
    },
    {
      "inputs": [],
      "name": "VERSION_RELEASE_CANDIDATE",
      "outputs": [
        {
          "internalType": "uint256",
          "name": "",
          "type": "uint256"
        }
      ],
      "stateMutability": "view",
      "type": "function"
    },
    {
      "inputs": [
        {
          "internalType": "address",
          "name": "to",
          "type": "address"
        },
        {
          "components": [
            {
              "internalType": "string",
              "name": "name",
              "type": "string"
            },
            {
              "internalType": "uint64",
              "name": "startTime",
              "type": "uint64"
            },
            {
              "internalType": "uint64",
              "name": "endTime",
              "type": "uint64"
            },
            {
              "internalType": "uint256",
              "name": "projectTokenId",
              "type": "uint256"
            },
            {
              "internalType": "uint64",
              "name": "totalVintageQuantity",
              "type": "uint64"
            },
            {
              "internalType": "bool",
              "name": "isCorsiaCompliant",
              "type": "bool"
            },
            {
              "internalType": "bool",
              "name": "isCCPcompliant",
              "type": "bool"
            },
            {
              "internalType": "string",
              "name": "coBenefits",
              "type": "string"
            },
            {
              "internalType": "string",
              "name": "correspAdjustment",
              "type": "string"
            },
            {
              "internalType": "string",
              "name": "additionalCertification",
              "type": "string"
            },
            {
              "internalType": "string",
              "name": "uri",
              "type": "string"
            },
            {
              "internalType": "string",
              "name": "registry",
              "type": "string"
            }
          ],
          "internalType": "struct VintageData",
          "name": "_vintageData",
          "type": "tuple"
        }
      ],
      "name": "addNewVintage",
      "outputs": [
        {
          "internalType": "uint256",
          "name": "",
          "type": "uint256"
        }
      ],
      "stateMutability": "nonpayable",
      "type": "function"
    },
    {
      "inputs": [
        {
          "internalType": "address",
          "name": "to",
          "type": "address"
        },
        {
          "internalType": "uint256",
          "name": "tokenId",
          "type": "uint256"
        }
      ],
      "name": "approve",
      "outputs": [],
      "stateMutability": "nonpayable",
      "type": "function"
    },
    {
      "inputs": [
        {
          "internalType": "address",
          "name": "owner",
          "type": "address"
        }
      ],
      "name": "balanceOf",
      "outputs": [
        {
          "internalType": "uint256",
          "name": "",
          "type": "uint256"
        }
      ],
      "stateMutability": "view",
      "type": "function"
    },
    {
      "inputs": [],
      "name": "baseURI",
      "outputs": [
        {
          "internalType": "string",
          "name": "",
          "type": "string"
        }
      ],
      "stateMutability": "view",
      "type": "function"
    },
    {
      "inputs": [],
      "name": "contractRegistry",
      "outputs": [
        {
          "internalType": "address",
          "name": "",
          "type": "address"
        }
      ],
      "stateMutability": "view",
      "type": "function"
    },
    {
      "inputs": [
        {
          "internalType": "uint256",
          "name": "tokenId",
          "type": "uint256"
        }
      ],
      "name": "exists",
      "outputs": [
        {
          "internalType": "bool",
          "name": "",
          "type": "bool"
        }
      ],
      "stateMutability": "view",
      "type": "function"
    },
    {
      "inputs": [
        {
          "internalType": "uint256",
          "name": "tokenId",
          "type": "uint256"
        }
      ],
      "name": "getApproved",
      "outputs": [
        {
          "internalType": "address",
          "name": "",
          "type": "address"
        }
      ],
      "stateMutability": "view",
      "type": "function"
    },
    {
      "inputs": [
        {
          "internalType": "uint256",
          "name": "tokenId",
          "type": "uint256"
        }
      ],
      "name": "getProjectVintageDataByTokenId",
      "outputs": [
        {
          "components": [
            {
              "internalType": "string",
              "name": "name",
              "type": "string"
            },
            {
              "internalType": "uint64",
              "name": "startTime",
              "type": "uint64"
            },
            {
              "internalType": "uint64",
              "name": "endTime",
              "type": "uint64"
            },
            {
              "internalType": "uint256",
              "name": "projectTokenId",
              "type": "uint256"
            },
            {
              "internalType": "uint64",
              "name": "totalVintageQuantity",
              "type": "uint64"
            },
            {
              "internalType": "bool",
              "name": "isCorsiaCompliant",
              "type": "bool"
            },
            {
              "internalType": "bool",
              "name": "isCCPcompliant",
              "type": "bool"
            },
            {
              "internalType": "string",
              "name": "coBenefits",
              "type": "string"
            },
            {
              "internalType": "string",
              "name": "correspAdjustment",
              "type": "string"
            },
            {
              "internalType": "string",
              "name": "additionalCertification",
              "type": "string"
            },
            {
              "internalType": "string",
              "name": "uri",
              "type": "string"
            },
            {
              "internalType": "string",
              "name": "registry",
              "type": "string"
            }
          ],
          "internalType": "struct VintageData",
          "name": "",
          "type": "tuple"
        }
      ],
      "stateMutability": "view",
      "type": "function"
    },
    {
      "inputs": [
        {
          "internalType": "bytes32",
          "name": "role",
          "type": "bytes32"
        }
      ],
      "name": "getRoleAdmin",
      "outputs": [
        {
          "internalType": "bytes32",
          "name": "",
          "type": "bytes32"
        }
      ],
      "stateMutability": "view",
      "type": "function"
    },
    {
      "inputs": [
        {
          "internalType": "bytes32",
          "name": "role",
          "type": "bytes32"
        },
        {
          "internalType": "address",
          "name": "account",
          "type": "address"
        }
      ],
      "name": "grantRole",
      "outputs": [],
      "stateMutability": "nonpayable",
      "type": "function"
    },
    {
      "inputs": [
        {
          "internalType": "bytes32",
          "name": "role",
          "type": "bytes32"
        },
        {
          "internalType": "address",
          "name": "account",
          "type": "address"
        }
      ],
      "name": "hasRole",
      "outputs": [
        {
          "internalType": "bool",
          "name": "",
          "type": "bool"
        }
      ],
      "stateMutability": "view",
      "type": "function"
    },
    {
      "inputs": [],
      "name": "initialize",
      "outputs": [],
      "stateMutability": "nonpayable",
      "type": "function"
    },
    {
      "inputs": [
        {
          "internalType": "address",
          "name": "owner",
          "type": "address"
        },
        {
          "internalType": "address",
          "name": "operator",
          "type": "address"
        }
      ],
      "name": "isApprovedForAll",
      "outputs": [
        {
          "internalType": "bool",
          "name": "",
          "type": "bool"
        }
      ],
      "stateMutability": "view",
      "type": "function"
    },
    {
      "inputs": [],
      "name": "name",
      "outputs": [
        {
          "internalType": "string",
          "name": "",
          "type": "string"
        }
      ],
      "stateMutability": "view",
      "type": "function"
    },
    {
      "inputs": [],
      "name": "owner",
      "outputs": [
        {
          "internalType": "address",
          "name": "",
          "type": "address"
        }
      ],
      "stateMutability": "view",
      "type": "function"
    },
    {
      "inputs": [
        {
          "internalType": "uint256",
          "name": "tokenId",
          "type": "uint256"
        }
      ],
      "name": "ownerOf",
      "outputs": [
        {
          "internalType": "address",
          "name": "",
          "type": "address"
        }
      ],
      "stateMutability": "view",
      "type": "function"
    },
    {
      "inputs": [],
      "name": "pause",
      "outputs": [],
      "stateMutability": "nonpayable",
      "type": "function"
    },
    {
      "inputs": [],
      "name": "paused",
      "outputs": [
        {
          "internalType": "bool",
          "name": "",
          "type": "bool"
        }
      ],
      "stateMutability": "view",
      "type": "function"
    },
    {
      "inputs": [],
      "name": "projectVintageTokenCounter",
      "outputs": [
        {
          "internalType": "uint128",
          "name": "",
          "type": "uint128"
        }
      ],
      "stateMutability": "view",
      "type": "function"
    },
    {
      "inputs": [],
      "name": "proxiableUUID",
      "outputs": [
        {
          "internalType": "bytes32",
          "name": "",
          "type": "bytes32"
        }
      ],
      "stateMutability": "view",
      "type": "function"
    },
    {
      "inputs": [
        {
          "internalType": "uint256",
          "name": "",
          "type": "uint256"
        },
        {
          "internalType": "uint64",
          "name": "",
          "type": "uint64"
        }
      ],
      "name": "pvToTokenId",
      "outputs": [
        {
          "internalType": "uint256",
          "name": "",
          "type": "uint256"
        }
      ],
      "stateMutability": "view",
      "type": "function"
    },
    {
      "inputs": [
        {
          "internalType": "uint256",
          "name": "tokenId",
          "type": "uint256"
        }
      ],
      "name": "removeVintage",
      "outputs": [],
      "stateMutability": "nonpayable",
      "type": "function"
    },
    {
      "inputs": [],
      "name": "renounceOwnership",
      "outputs": [],
      "stateMutability": "nonpayable",
      "type": "function"
    },
    {
      "inputs": [
        {
          "internalType": "bytes32",
          "name": "role",
          "type": "bytes32"
        },
        {
          "internalType": "address",
          "name": "account",
          "type": "address"
        }
      ],
      "name": "renounceRole",
      "outputs": [],
      "stateMutability": "nonpayable",
      "type": "function"
    },
    {
      "inputs": [
        {
          "internalType": "bytes32",
          "name": "role",
          "type": "bytes32"
        },
        {
          "internalType": "address",
          "name": "account",
          "type": "address"
        }
      ],
      "name": "revokeRole",
      "outputs": [],
      "stateMutability": "nonpayable",
      "type": "function"
    },
    {
      "inputs": [
        {
          "internalType": "address",
          "name": "from",
          "type": "address"
        },
        {
          "internalType": "address",
          "name": "to",
          "type": "address"
        },
        {
          "internalType": "uint256",
          "name": "tokenId",
          "type": "uint256"
        }
      ],
      "name": "safeTransferFrom",
      "outputs": [],
      "stateMutability": "nonpayable",
      "type": "function"
    },
    {
      "inputs": [
        {
          "internalType": "address",
          "name": "from",
          "type": "address"
        },
        {
          "internalType": "address",
          "name": "to",
          "type": "address"
        },
        {
          "internalType": "uint256",
          "name": "tokenId",
          "type": "uint256"
        },
        {
          "internalType": "bytes",
          "name": "_data",
          "type": "bytes"
        }
      ],
      "name": "safeTransferFrom",
      "outputs": [],
      "stateMutability": "nonpayable",
      "type": "function"
    },
    {
      "inputs": [
        {
          "internalType": "address",
          "name": "operator",
          "type": "address"
        },
        {
          "internalType": "bool",
          "name": "approved",
          "type": "bool"
        }
      ],
      "name": "setApprovalForAll",
      "outputs": [],
      "stateMutability": "nonpayable",
      "type": "function"
    },
    {
      "inputs": [
        {
          "internalType": "string",
          "name": "baseURI_",
          "type": "string"
        }
      ],
      "name": "setBaseURI",
      "outputs": [],
      "stateMutability": "nonpayable",
      "type": "function"
    },
    {
      "inputs": [
        {
          "internalType": "address",
          "name": "_address",
          "type": "address"
        }
      ],
      "name": "setKyklosContractRegistry",
      "outputs": [],
      "stateMutability": "nonpayable",
      "type": "function"
    },
    {
      "inputs": [
        {
          "internalType": "bytes4",
          "name": "interfaceId",
          "type": "bytes4"
        }
      ],
      "name": "supportsInterface",
      "outputs": [
        {
          "internalType": "bool",
          "name": "",
          "type": "bool"
        }
      ],
      "stateMutability": "view",
      "type": "function"
    },
    {
      "inputs": [],
      "name": "symbol",
      "outputs": [
        {
          "internalType": "string",
          "name": "",
          "type": "string"
        }
      ],
      "stateMutability": "view",
      "type": "function"
    },
    {
      "inputs": [
        {
          "internalType": "uint256",
          "name": "tokenId",
          "type": "uint256"
        }
      ],
      "name": "tokenURI",
      "outputs": [
        {
          "internalType": "string",
          "name": "",
          "type": "string"
        }
      ],
      "stateMutability": "view",
      "type": "function"
    },
    {
      "inputs": [],
      "name": "totalSupply",
      "outputs": [
        {
          "internalType": "uint128",
          "name": "",
          "type": "uint128"
        }
      ],
      "stateMutability": "view",
      "type": "function"
    },
    {
      "inputs": [
        {
          "internalType": "address",
          "name": "from",
          "type": "address"
        },
        {
          "internalType": "address",
          "name": "to",
          "type": "address"
        },
        {
          "internalType": "uint256",
          "name": "tokenId",
          "type": "uint256"
        }
      ],
      "name": "transferFrom",
      "outputs": [],
      "stateMutability": "nonpayable",
      "type": "function"
    },
    {
      "inputs": [
        {
          "internalType": "address",
          "name": "newOwner",
          "type": "address"
        }
      ],
      "name": "transferOwnership",
      "outputs": [],
      "stateMutability": "nonpayable",
      "type": "function"
    },
    {
      "inputs": [],
      "name": "unpause",
      "outputs": [],
      "stateMutability": "nonpayable",
      "type": "function"
    },
    {
      "inputs": [
        {
          "internalType": "uint256",
          "name": "tokenId",
          "type": "uint256"
        },
        {
          "components": [
            {
              "internalType": "string",
              "name": "name",
              "type": "string"
            },
            {
              "internalType": "uint64",
              "name": "startTime",
              "type": "uint64"
            },
            {
              "internalType": "uint64",
              "name": "endTime",
              "type": "uint64"
            },
            {
              "internalType": "uint256",
              "name": "projectTokenId",
              "type": "uint256"
            },
            {
              "internalType": "uint64",
              "name": "totalVintageQuantity",
              "type": "uint64"
            },
            {
              "internalType": "bool",
              "name": "isCorsiaCompliant",
              "type": "bool"
            },
            {
              "internalType": "bool",
              "name": "isCCPcompliant",
              "type": "bool"
            },
            {
              "internalType": "string",
              "name": "coBenefits",
              "type": "string"
            },
            {
              "internalType": "string",
              "name": "correspAdjustment",
              "type": "string"
            },
            {
              "internalType": "string",
              "name": "additionalCertification",
              "type": "string"
            },
            {
              "internalType": "string",
              "name": "uri",
              "type": "string"
            },
            {
              "internalType": "string",
              "name": "registry",
              "type": "string"
            }
          ],
          "internalType": "struct VintageData",
          "name": "_vintageData",
          "type": "tuple"
        }
      ],
      "name": "updateProjectVintage",
      "outputs": [],
      "stateMutability": "nonpayable",
      "type": "function"
    },
    {
      "inputs": [
        {
          "internalType": "address",
          "name": "newImplementation",
          "type": "address"
        }
      ],
      "name": "upgradeTo",
      "outputs": [],
      "stateMutability": "nonpayable",
      "type": "function"
    },
    {
      "inputs": [
        {
          "internalType": "address",
          "name": "newImplementation",
          "type": "address"
        },
        {
          "internalType": "bytes",
          "name": "data",
          "type": "bytes"
        }
      ],
      "name": "upgradeToAndCall",
      "outputs": [],
      "stateMutability": "payable",
      "type": "function"
    },
    {
      "inputs": [
        {
          "internalType": "uint256",
          "name": "",
          "type": "uint256"
        }
      ],
      "name": "validProjectVintageIds",
      "outputs": [
        {
          "internalType": "bool",
          "name": "",
          "type": "bool"
        }
      ],
      "stateMutability": "view",
      "type": "function"
    },
    {
      "inputs": [
        {
          "internalType": "uint256",
          "name": "",
          "type": "uint256"
        }
      ],
      "name": "vintageData",
      "outputs": [
        {
          "internalType": "string",
          "name": "name",
          "type": "string"
        },
        {
          "internalType": "uint64",
          "name": "startTime",
          "type": "uint64"
        },
        {
          "internalType": "uint64",
          "name": "endTime",
          "type": "uint64"
        },
        {
          "internalType": "uint256",
          "name": "projectTokenId",
          "type": "uint256"
        },
        {
          "internalType": "uint64",
          "name": "totalVintageQuantity",
          "type": "uint64"
        },
        {
          "internalType": "bool",
          "name": "isCorsiaCompliant",
          "type": "bool"
        },
        {
          "internalType": "bool",
          "name": "isCCPcompliant",
          "type": "bool"
        },
        {
          "internalType": "string",
          "name": "coBenefits",
          "type": "string"
        },
        {
          "internalType": "string",
          "name": "correspAdjustment",
          "type": "string"
        },
        {
          "internalType": "string",
          "name": "additionalCertification",
          "type": "string"
        },
        {
          "internalType": "string",
          "name": "uri",
          "type": "string"
        },
        {
          "internalType": "string",
          "name": "registry",
          "type": "string"
        }
      ],
      "stateMutability": "view",
      "type": "function"
    }
  ],
  "numDeployments": 2,
  "solcInputHash": "d1307eaf561eb20b96bded8f83a6ac40",
  "bytecode": "0x60a0604052306080523480156200001557600080fd5b506200002062000026565b62000158565b6200003260ff62000035565b50565b600654600090610100900460ff1615620000d0578160ff1660011480156200007057506200006e306200014960201b6200248f1760201c565b155b620000c85760405162461bcd60e51b815260206004820152602e6024820152600080516020620047f083398151915260448201526d191e481a5b9a5d1a585b1a5e995960921b60648201526084015b60405180910390fd5b506000919050565b60065460ff8084169116106200012f5760405162461bcd60e51b815260206004820152602e6024820152600080516020620047f083398151915260448201526d191e481a5b9a5d1a585b1a5e995960921b6064820152608401620000bf565b506006805460ff191660ff92909216919091179055600190565b6001600160a01b03163b151590565b60805161466062000190600039600081816114370152818161147701528181611592015281816115d2015261166c01526146606000f3fe60806040526004361061027d5760003560e01c80636b1a637e1161014f578063a22cb465116100c1578063e304301c1161007a578063e304301c146107b4578063e985e9c5146107e4578063ec87621c1461082d578063ec96a4ee1461084f578063f2fde38b1461086f578063ffa1ad741461088f57600080fd5b8063a22cb465146106f4578063abf410e514610714578063b88d4fde14610734578063c87b56dd14610754578063d547741f14610774578063db26f9611461079457600080fd5b80638129fc1c116101135780638129fc1c146106625780638456cb59146106775780638da5cb5b1461068c57806391d14854146106aa57806395d89b41146106ca578063a217fddf146106df57600080fd5b80636b1a637e146105cb5780636c0360eb146106035780636ca0b0d71461061857806370a082311461062d578063715018a61461064d57600080fd5b806336568abe116101f357806352d1902d116101ac57806352d1902d1461050657806354c8093b1461051b57806355f804b31461053b578063591f581b1461055b5780635c975abb146105935780636352211e146105ab57600080fd5b806336568abe1461045e5780633659cfe61461047e5780633f4ba83a1461049e57806342842e0e146104b35780634f1ef286146104d35780634f558e79146104e657600080fd5b80630a56d656116102455780630a56d6561461036b57806315bbf0741461039957806318160ddd146103c657806323b872dd146103ed578063248a9ca31461040d5780632f2ff15d1461043e57600080fd5b806301ffc9a71461028257806306dcc166146102b757806306fdde03146102ef578063081812fc14610311578063095ea7b314610349575b600080fd5b34801561028e57600080fd5b506102a261029d36600461387a565b6108c0565b60405190151581526020015b60405180910390f35b3480156102c357600080fd5b506000546102d7906001600160801b031681565b6040516001600160801b0390911681526020016102ae565b3480156102fb57600080fd5b506103046108eb565b6040516102ae91906138ef565b34801561031d57600080fd5b5061033161032c366004613902565b61097d565b6040516001600160a01b0390911681526020016102ae565b34801561035557600080fd5b50610369610364366004613930565b610a0a565b005b34801561037757600080fd5b5061038b610386366004613bc1565b610b1f565b6040519081526020016102ae565b3480156103a557600080fd5b506103b96103b4366004613902565b610eec565b6040516102ae9190613c10565b3480156103d257600080fd5b506000546102d790600160801b90046001600160801b031681565b3480156103f957600080fd5b50610369610408366004613d43565b611358565b34801561041957600080fd5b5061038b610428366004613902565b6000908152610101602052604090206001015490565b34801561044a57600080fd5b50610369610459366004613d84565b611389565b34801561046a57600080fd5b50610369610479366004613d84565b6113af565b34801561048a57600080fd5b50610369610499366004613db4565b61142d565b3480156104aa57600080fd5b5061036961150c565b3480156104bf57600080fd5b506103696104ce366004613d43565b61156d565b6103696104e1366004613dd1565b611588565b3480156104f257600080fd5b506102a2610501366004613902565b611654565b34801561051257600080fd5b5061038b61165f565b34801561052757600080fd5b50610369610536366004613db4565b611712565b34801561054757600080fd5b50610369610556366004613e16565b61175e565b34801561056757600080fd5b5061057b610576366004613902565b61179b565b6040516102ae9c9b9a99989796959493929190613e4a565b34801561059f57600080fd5b5060cf5460ff166102a2565b3480156105b757600080fd5b506103316105c6366004613902565b611b40565b3480156105d757600080fd5b5061038b6105e6366004613f21565b600560209081526000928352604080842090915290825290205481565b34801561060f57600080fd5b50610304611bb7565b34801561062457600080fd5b5061038b600181565b34801561063957600080fd5b5061038b610648366004613db4565b611c45565b34801561065957600080fd5b50610369611ccc565b34801561066e57600080fd5b50610369611d02565b34801561068357600080fd5b50610369611de5565b34801561069857600080fd5b50609d546001600160a01b0316610331565b3480156106b657600080fd5b506102a26106c5366004613d84565b611e46565b3480156106d657600080fd5b50610304611e72565b3480156106eb57600080fd5b5061038b600081565b34801561070057600080fd5b5061036961070f366004613f4d565b611e81565b34801561072057600080fd5b50600154610331906001600160a01b031681565b34801561074057600080fd5b5061036961074f366004613f7b565b611e8c565b34801561076057600080fd5b5061030461076f366004613902565b611ec4565b34801561078057600080fd5b5061036961078f366004613d84565b612030565b3480156107a057600080fd5b506103696107af366004613902565b612056565b3480156107c057600080fd5b506102a26107cf366004613902565b60046020526000908152604090205460ff1681565b3480156107f057600080fd5b506102a26107ff366004613fe6565b6001600160a01b03918216600090815260706020908152604080832093909416825291909152205460ff1690565b34801561083957600080fd5b5061038b6000805160206145e483398151915281565b34801561085b57600080fd5b5061036961086a366004614014565b6121a3565b34801561087b57600080fd5b5061036961088a366004613db4565b6123f7565b34801561089b57600080fd5b5061030460405180604001604052806005815260200164312e312e3160d81b81525081565b60006001600160e01b03198216637965db0b60e01b14806108e557506108e58261249e565b92915050565b6060606b80546108fa90614044565b80601f016020809104026020016040519081016040528092919081815260200182805461092690614044565b80156109735780601f1061094857610100808354040283529160200191610973565b820191906000526020600020905b81548152906001019060200180831161095657829003601f168201915b5050505050905090565b6000610988826124ee565b6109ee5760405162461bcd60e51b815260206004820152602c60248201527f4552433732313a20617070726f76656420717565727920666f72206e6f6e657860448201526b34b9ba32b73a103a37b5b2b760a11b60648201526084015b60405180910390fd5b506000908152606f60205260409020546001600160a01b031690565b6000610a1582611b40565b9050806001600160a01b0316836001600160a01b031603610a825760405162461bcd60e51b815260206004820152602160248201527f4552433732313a20617070726f76616c20746f2063757272656e74206f776e656044820152603960f91b60648201526084016109e5565b336001600160a01b0382161480610a9e5750610a9e81336107ff565b610b105760405162461bcd60e51b815260206004820152603860248201527f4552433732313a20617070726f76652063616c6c6572206973206e6f74206f7760448201527f6e6572206e6f7220617070726f76656420666f7220616c6c000000000000000060648201526084016109e5565b610b1a838361250b565b505050565b6000610b396000805160206145e483398151915233611e46565b80610b5d575033610b52609d546001600160a01b031690565b6001600160a01b0316145b610b795760405162461bcd60e51b81526004016109e59061407e565b60cf5460ff1615610b9c5760405162461bcd60e51b81526004016109e5906140b5565b6001546060830151610bb7916001600160a01b031690612579565b60608201516000908152600560209081526040808320828601516001600160401b0316845290915290205415610c2f5760405162461bcd60e51b815260206004820152601c60248201527f4572726f723a2076696e7461676520616c72656164792061646465640000000060448201526064016109e5565b81604001516001600160401b031682602001516001600160401b031610610cb35760405162461bcd60e51b815260206004820152603260248201527f4572726f723a2076696e7461676520737461727454696d65206d757374206265604482015271206c657373207468616e20656e6454696d6560701b60648201526084016109e5565b600080546001600160801b038082166001908101808316600160801b94859004841683019093169093026001600160801b03191691909117835581835260046020526040909220805460ff1916909217909155610d1084826126a2565b6000818152600360209081526040909120845180518693610d35928492910190613795565b5060208281015160018301805460408601516001600160401b039384166001600160801b031990921691909117600160401b91841682021790915560608501516002850155608085015160038501805460a088015160c08901519390951668ffffffffffffffffff19909116179315159092029290921760ff60481b1916600160481b9215159290920291909117905560e08301518051610ddc9260048501920190613795565b506101008201518051610df9916005840191602090910190613795565b506101208201518051610e16916006840191602090910190613795565b506101408201518051610e33916007840191602090910190613795565b506101608201518051610e50916008840191602090910190613795565b505050606083810151602080860151604080516001600160a01b038a168152928301869052828101939093526001600160401b031692810192909252517fc86a7ca8aa1c36c7a1f88fc730a3b16d13dcd0b98d558e27eb1b210fc3bd13bc9181900360800190a160608301516000908152600560209081526040808320828701516001600160401b031684529091529020819055905092915050565b610f6f6040518061018001604052806060815260200160006001600160401b0316815260200160006001600160401b031681526020016000815260200160006001600160401b0316815260200160001515815260200160001515815260200160608152602001606081526020016060815260200160608152602001606081525090565b6000828152600360205260409081902081516101808101909252805482908290610f9890614044565b80601f0160208091040260200160405190810160405280929190818152602001828054610fc490614044565b80156110115780601f10610fe657610100808354040283529160200191611011565b820191906000526020600020905b815481529060010190602001808311610ff457829003601f168201915b505050918352505060018201546001600160401b038082166020840152600160401b9182900481166040840152600284015460608401526003840154908116608084015260ff9181048216151560a0840152600160481b900416151560c082015260048201805460e09092019161108790614044565b80601f01602080910402602001604051908101604052809291908181526020018280546110b390614044565b80156111005780601f106110d557610100808354040283529160200191611100565b820191906000526020600020905b8154815290600101906020018083116110e357829003601f168201915b5050505050815260200160058201805461111990614044565b80601f016020809104026020016040519081016040528092919081815260200182805461114590614044565b80156111925780601f1061116757610100808354040283529160200191611192565b820191906000526020600020905b81548152906001019060200180831161117557829003601f168201915b505050505081526020016006820180546111ab90614044565b80601f01602080910402602001604051908101604052809291908181526020018280546111d790614044565b80156112245780601f106111f957610100808354040283529160200191611224565b820191906000526020600020905b81548152906001019060200180831161120757829003601f168201915b5050505050815260200160078201805461123d90614044565b80601f016020809104026020016040519081016040528092919081815260200182805461126990614044565b80156112b65780601f1061128b576101008083540402835291602001916112b6565b820191906000526020600020905b81548152906001019060200180831161129957829003601f168201915b505050505081526020016008820180546112cf90614044565b80601f01602080910402602001604051908101604052809291908181526020018280546112fb90614044565b80156113485780601f1061131d57610100808354040283529160200191611348565b820191906000526020600020905b81548152906001019060200180831161132b57829003601f168201915b5050505050815250509050919050565b61136233826127d5565b61137e5760405162461bcd60e51b81526004016109e5906140df565b610b1a8383836128be565b600082815261010160205260409020600101546113a581612a5a565b610b1a8383612a64565b6001600160a01b038116331461141f5760405162461bcd60e51b815260206004820152602f60248201527f416363657373436f6e74726f6c3a2063616e206f6e6c792072656e6f756e636560448201526e103937b632b9903337b91039b2b63360891b60648201526084016109e5565b6114298282612aeb565b5050565b6001600160a01b037f00000000000000000000000000000000000000000000000000000000000000001630036114755760405162461bcd60e51b81526004016109e590614130565b7f00000000000000000000000000000000000000000000000000000000000000006001600160a01b03166114be6000805160206145c4833981519152546001600160a01b031690565b6001600160a01b0316146114e45760405162461bcd60e51b81526004016109e59061417c565b6114ed81612b53565b6040805160008082526020820190925261150991839190612b7d565b50565b6001546001600160a01b031661152a609d546001600160a01b031690565b6001600160a01b03821633148061154957506001600160a01b03811633145b6115655760405162461bcd60e51b81526004016109e5906141c8565b611429612ce8565b610b1a83838360405180602001604052806000815250611e8c565b6001600160a01b037f00000000000000000000000000000000000000000000000000000000000000001630036115d05760405162461bcd60e51b81526004016109e590614130565b7f00000000000000000000000000000000000000000000000000000000000000006001600160a01b03166116196000805160206145c4833981519152546001600160a01b031690565b6001600160a01b03161461163f5760405162461bcd60e51b81526004016109e59061417c565b61164882612b53565b61142982826001612b7d565b60006108e5826124ee565b6000306001600160a01b037f000000000000000000000000000000000000000000000000000000000000000016146116ff5760405162461bcd60e51b815260206004820152603860248201527f555550535570677261646561626c653a206d757374206e6f742062652063616c60448201527f6c6564207468726f7567682064656c656761746563616c6c000000000000000060648201526084016109e5565b506000805160206145c483398151915290565b609d546001600160a01b0316331461173c5760405162461bcd60e51b81526004016109e59061420d565b600180546001600160a01b0319166001600160a01b0392909216919091179055565b609d546001600160a01b031633146117885760405162461bcd60e51b81526004016109e59061420d565b8051611429906002906020840190613795565b6003602052600090815260409020805481906117b690614044565b80601f01602080910402602001604051908101604052809291908181526020018280546117e290614044565b801561182f5780601f106118045761010080835404028352916020019161182f565b820191906000526020600020905b81548152906001019060200180831161181257829003601f168201915b5050505060018301546002840154600385015460048601805495966001600160401b0380861697600160401b968790048216975094959084169490840460ff90811694600160481b900416929061188590614044565b80601f01602080910402602001604051908101604052809291908181526020018280546118b190614044565b80156118fe5780601f106118d3576101008083540402835291602001916118fe565b820191906000526020600020905b8154815290600101906020018083116118e157829003601f168201915b50505050509080600501805461191390614044565b80601f016020809104026020016040519081016040528092919081815260200182805461193f90614044565b801561198c5780601f106119615761010080835404028352916020019161198c565b820191906000526020600020905b81548152906001019060200180831161196f57829003601f168201915b5050505050908060060180546119a190614044565b80601f01602080910402602001604051908101604052809291908181526020018280546119cd90614044565b8015611a1a5780601f106119ef57610100808354040283529160200191611a1a565b820191906000526020600020905b8154815290600101906020018083116119fd57829003601f168201915b505050505090806007018054611a2f90614044565b80601f0160208091040260200160405190810160405280929190818152602001828054611a5b90614044565b8015611aa85780601f10611a7d57610100808354040283529160200191611aa8565b820191906000526020600020905b815481529060010190602001808311611a8b57829003601f168201915b505050505090806008018054611abd90614044565b80601f0160208091040260200160405190810160405280929190818152602001828054611ae990614044565b8015611b365780601f10611b0b57610100808354040283529160200191611b36565b820191906000526020600020905b815481529060010190602001808311611b1957829003601f168201915b505050505090508c565b6000818152606d60205260408120546001600160a01b0316806108e55760405162461bcd60e51b815260206004820152602960248201527f4552433732313a206f776e657220717565727920666f72206e6f6e657869737460448201526832b73a103a37b5b2b760b91b60648201526084016109e5565b60028054611bc490614044565b80601f0160208091040260200160405190810160405280929190818152602001828054611bf090614044565b8015611c3d5780601f10611c1257610100808354040283529160200191611c3d565b820191906000526020600020905b815481529060010190602001808311611c2057829003601f168201915b505050505081565b60006001600160a01b038216611cb05760405162461bcd60e51b815260206004820152602a60248201527f4552433732313a2062616c616e636520717565727920666f7220746865207a65604482015269726f206164647265737360b01b60648201526084016109e5565b506001600160a01b03166000908152606e602052604090205490565b609d546001600160a01b03163314611cf65760405162461bcd60e51b81526004016109e59061420d565b611d006000612d7b565b565b6000611d0e6001612dcd565b90508015611d26576006805461ff0019166101001790555b611d2e612e5c565b611d7260405180606001604052806028815260200161459c602891396040518060400160405280600a81526020016925aca5a627a996a1a82b60b11b815250612e83565b611d7a612ed1565b611d82612f01565b611d8a612e5c565b611d92612e5c565b611d9d600033612a64565b8015611509576006805461ff0019169055604051600181527f7f26b83ff96e1f2b6a682f133852f6798a09c465da95921460cefb38474024989060200160405180910390a150565b6001546001600160a01b0316611e03609d546001600160a01b031690565b6001600160a01b038216331480611e2257506001600160a01b03811633145b611e3e5760405162461bcd60e51b81526004016109e5906141c8565b611429612f34565b6000918252610101602090815260408084206001600160a01b0393909316845291905290205460ff1690565b6060606c80546108fa90614044565b611429338383612f8c565b611e9633836127d5565b611eb25760405162461bcd60e51b81526004016109e5906140df565b611ebe8484848461305a565b50505050565b6060611ecf826124ee565b611f355760405162461bcd60e51b815260206004820152603160248201527f45524337323155524953746f726167653a2055524920717565727920666f72206044820152703737b732bc34b9ba32b73a103a37b5b2b760791b60648201526084016109e5565b60008281526003602052604081206007018054611f5190614044565b80601f0160208091040260200160405190810160405280929190818152602001828054611f7d90614044565b8015611fca5780601f10611f9f57610100808354040283529160200191611fca565b820191906000526020600020905b815481529060010190602001808311611fad57829003601f168201915b505050505090506000611fdb61308d565b90508051600003611fed575092915050565b81511561201f578082604051602001612007929190614242565b60405160208183030381529060405292505050919050565b6120288461309c565b949350505050565b6000828152610101602052604090206001015461204c81612a5a565b610b1a8383612aeb565b61206e6000805160206145e483398151915233611e46565b80612092575033612087609d546001600160a01b031690565b6001600160a01b0316145b6120ae5760405162461bcd60e51b81526004016109e59061407e565b60cf5460ff16156120d15760405162461bcd60e51b81526004016109e5906140b5565b60008054600160801b90046001600160801b03169060106120f183614287565b82546001600160801b039182166101009390930a92830291909202199091161790555060008181526003602052604081209061212d8282613819565b6001820180546001600160801b031916905560006002830181905560038301805469ffffffffffffffffffff1916905561216b906004840190613819565b612179600583016000613819565b612187600683016000613819565b612195600783016000613819565b610b1a600883016000613819565b6121bb6000805160206145e483398151915233611e46565b806121df5750336121d4609d546001600160a01b031690565b6001600160a01b0316145b6121fb5760405162461bcd60e51b81526004016109e59061407e565b60cf5460ff161561221e5760405162461bcd60e51b81526004016109e5906140b5565b612227826124ee565b61226c5760405162461bcd60e51b8152602060048201526016602482015275141c9bda9958dd081b9bdd081e595d081b5a5b9d195960521b60448201526064016109e5565b600082815260036020818152604083206002810154606086015292859052908152825180518493926122a2928492910190613795565b5060208281015160018301805460408601516001600160401b039384166001600160801b031990921691909117600160401b91841682021790915560608501516002850155608085015160038501805460a088015160c08901519390951668ffffffffffffffffff19909116179315159092029290921760ff60481b1916600160481b9215159290920291909117905560e083015180516123499260048501920190613795565b506101008201518051612366916005840191602090910190613795565b506101208201518051612383916006840191602090910190613795565b5061014082015180516123a0916007840191602090910190613795565b5061016082015180516123bd916008840191602090910190613795565b50506040518381527f9c270c68adf8a1de8e2cadd390648c2c2ba814ebc705acaef6f17bf40a99706f915060200160405180910390a15050565b609d546001600160a01b031633146124215760405162461bcd60e51b81526004016109e59061420d565b6001600160a01b0381166124865760405162461bcd60e51b815260206004820152602660248201527f4f776e61626c653a206e6577206f776e657220697320746865207a65726f206160448201526564647265737360d01b60648201526084016109e5565b61150981612d7b565b6001600160a01b03163b151590565b60006001600160e01b031982166380ac58cd60e01b14806124cf57506001600160e01b03198216635b5e139f60e01b145b806108e557506301ffc9a760e01b6001600160e01b03198316146108e5565b6000908152606d60205260409020546001600160a01b0316151590565b6000818152606f6020526040902080546001600160a01b0319166001600160a01b038416908117909155819061254082611b40565b6001600160a01b03167f8c5be1e5ebec7d5bd14f71427d1e84f3dd0314c0f7b2291e5b200ac8c7c3b92560405160405180910390a45050565b6000826001600160a01b03166301157a836040518163ffffffff1660e01b8152600401602060405180830381865afa1580156125b9573d6000803e3d6000fd5b505050506040513d601f19601f820116820180604052508101906125dd91906142aa565b60405163365fe85d60e01b8152600481018490529091506000906001600160a01b0383169063365fe85d906024016020604051808303816000875af115801561262a573d6000803e3d6000fd5b505050506040513d601f19601f8201168201806040525081019061264e91906142c7565b9050600181151514611ebe5760405162461bcd60e51b815260206004820152601d60248201527f4572726f723a2050726f6a65637420646f6573206e6f7420657869737400000060448201526064016109e5565b6001600160a01b0382166126f85760405162461bcd60e51b815260206004820181905260248201527f4552433732313a206d696e7420746f20746865207a65726f206164647265737360448201526064016109e5565b612701816124ee565b1561274e5760405162461bcd60e51b815260206004820152601c60248201527f4552433732313a20746f6b656e20616c7265616479206d696e7465640000000060448201526064016109e5565b6001600160a01b0382166000908152606e602052604081208054600192906127779084906142e4565b90915550506000818152606d602052604080822080546001600160a01b0319166001600160a01b03861690811790915590518392907fddf252ad1be2c89b69c2b068fc378daa952ba7f163c4a11628f55a4df523b3ef908290a45050565b60006127e0826124ee565b6128415760405162461bcd60e51b815260206004820152602c60248201527f4552433732313a206f70657261746f7220717565727920666f72206e6f6e657860448201526b34b9ba32b73a103a37b5b2b760a11b60648201526084016109e5565b600061284c83611b40565b9050806001600160a01b0316846001600160a01b0316148061289357506001600160a01b0380821660009081526070602090815260408083209388168352929052205460ff165b806120285750836001600160a01b03166128ac8461097d565b6001600160a01b031614949350505050565b826001600160a01b03166128d182611b40565b6001600160a01b0316146129355760405162461bcd60e51b815260206004820152602560248201527f4552433732313a207472616e736665722066726f6d20696e636f72726563742060448201526437bbb732b960d91b60648201526084016109e5565b6001600160a01b0382166129975760405162461bcd60e51b8152602060048201526024808201527f4552433732313a207472616e7366657220746f20746865207a65726f206164646044820152637265737360e01b60648201526084016109e5565b6129a260008261250b565b6001600160a01b0383166000908152606e602052604081208054600192906129cb9084906142fc565b90915550506001600160a01b0382166000908152606e602052604081208054600192906129f99084906142e4565b90915550506000818152606d602052604080822080546001600160a01b0319166001600160a01b0386811691821790925591518493918716917fddf252ad1be2c89b69c2b068fc378daa952ba7f163c4a11628f55a4df523b3ef91a4505050565b6115098133613167565b612a6e8282611e46565b611429576000828152610101602090815260408083206001600160a01b03851684529091529020805460ff19166001179055612aa73390565b6001600160a01b0316816001600160a01b0316837f2f8788117e7eff1d82e926ec794901d17c78024a50270940304540a733656f0d60405160405180910390a45050565b612af58282611e46565b15611429576000828152610101602090815260408083206001600160a01b0385168085529252808320805460ff1916905551339285917ff6391f5c32d9c69d2a47ea670b442974b53935d1edc7fd64eb21e047a839171b9190a45050565b609d546001600160a01b031633146115095760405162461bcd60e51b81526004016109e59061420d565b7f4910fdfa16fed3260ed0e7147f7cc6da11a60208b5b9406d12a635614ffd91435460ff1615612bb057610b1a836131cb565b826001600160a01b03166352d1902d6040518163ffffffff1660e01b8152600401602060405180830381865afa925050508015612c0a575060408051601f3d908101601f19168201909252612c0791810190614313565b60015b612c6d5760405162461bcd60e51b815260206004820152602e60248201527f45524331393637557067726164653a206e657720696d706c656d656e7461746960448201526d6f6e206973206e6f74205555505360901b60648201526084016109e5565b6000805160206145c48339815191528114612cdc5760405162461bcd60e51b815260206004820152602960248201527f45524331393637557067726164653a20756e737570706f727465642070726f786044820152681a58589b195555525160ba1b60648201526084016109e5565b50610b1a838383613267565b60cf5460ff16612d315760405162461bcd60e51b815260206004820152601460248201527314185d5cd8589b194e881b9bdd081c185d5cd95960621b60448201526064016109e5565b60cf805460ff191690557f5db9ee0a495bf2e6ff9c91a7834c1ba4fdd244a5e8aa4e537bd38aeae4b073aa335b6040516001600160a01b03909116815260200160405180910390a1565b609d80546001600160a01b038381166001600160a01b0319831681179093556040519116919082907f8be0079c531659141344cd1fd0a4f28419497f9722a3daafe3b4186f6b6457e090600090a35050565b600654600090610100900460ff1615612e16578160ff166001148015612df25750303b155b612e0e5760405162461bcd60e51b81526004016109e59061432c565b506000919050565b60065460ff808416911610612e3d5760405162461bcd60e51b81526004016109e59061432c565b506006805460ff191660ff92909216919091179055600190565b919050565b600654610100900460ff16611d005760405162461bcd60e51b81526004016109e59061437a565b600654610100900460ff16612eaa5760405162461bcd60e51b81526004016109e59061437a565b8151612ebd90606b906020850190613795565b508051610b1a90606c906020840190613795565b600654610100900460ff16612ef85760405162461bcd60e51b81526004016109e59061437a565b611d0033612d7b565b600654610100900460ff16612f285760405162461bcd60e51b81526004016109e59061437a565b60cf805460ff19169055565b60cf5460ff1615612f575760405162461bcd60e51b81526004016109e5906140b5565b60cf805460ff191660011790557f62e78cea01bee320cd4e420270b5ea74000d11b0c9f74754ebdbfc544b05a258612d5e3390565b816001600160a01b0316836001600160a01b031603612fed5760405162461bcd60e51b815260206004820152601960248201527f4552433732313a20617070726f766520746f2063616c6c65720000000000000060448201526064016109e5565b6001600160a01b03838116600081815260706020908152604080832094871680845294825291829020805460ff191686151590811790915591519182527f17307eab39ab6107e8899845ad3d59bd9653f200f220920489ca2b5937696c31910160405180910390a3505050565b6130658484846128be565b6130718484848461328c565b611ebe5760405162461bcd60e51b81526004016109e5906143c5565b6060600280546108fa90614044565b60606130a7826124ee565b61310b5760405162461bcd60e51b815260206004820152602f60248201527f4552433732314d657461646174613a2055524920717565727920666f72206e6f60448201526e3732bc34b9ba32b73a103a37b5b2b760891b60648201526084016109e5565b600061311561308d565b905060008151116131355760405180602001604052806000815250613160565b8061313f8461338d565b604051602001613150929190614242565b6040516020818303038152906040525b9392505050565b6131718282611e46565b61142957613189816001600160a01b0316601461348d565b61319483602061348d565b6040516020016131a5929190614417565b60408051601f198184030181529082905262461bcd60e51b82526109e5916004016138ef565b6001600160a01b0381163b6132385760405162461bcd60e51b815260206004820152602d60248201527f455243313936373a206e657720696d706c656d656e746174696f6e206973206e60448201526c1bdd08184818dbdb9d1c9858dd609a1b60648201526084016109e5565b6000805160206145c483398151915280546001600160a01b0319166001600160a01b0392909216919091179055565b61327083613628565b60008251118061327d5750805b15610b1a57611ebe8383613668565b60006001600160a01b0384163b1561338257604051630a85bd0160e11b81526001600160a01b0385169063150b7a02906132d090339089908890889060040161448c565b6020604051808303816000875af192505050801561330b575060408051601f3d908101601f19168201909252613308918101906144bf565b60015b613368573d808015613339576040519150601f19603f3d011682016040523d82523d6000602084013e61333e565b606091505b5080516000036133605760405162461bcd60e51b81526004016109e5906143c5565b805181602001fd5b6001600160e01b031916630a85bd0160e11b149050612028565b506001949350505050565b6060816000036133b45750506040805180820190915260018152600360fc1b602082015290565b8160005b81156133de57806133c8816144dc565b91506133d79050600a8361450b565b91506133b8565b6000816001600160401b038111156133f8576133f861395c565b6040519080825280601f01601f191660200182016040528015613422576020820181803683370190505b5090505b8415612028576134376001836142fc565b9150613444600a8661451f565b61344f9060306142e4565b60f81b81838151811061346457613464614533565b60200101906001600160f81b031916908160001a905350613486600a8661450b565b9450613426565b6060600061349c836002614549565b6134a79060026142e4565b6001600160401b038111156134be576134be61395c565b6040519080825280601f01601f1916602001820160405280156134e8576020820181803683370190505b509050600360fc1b8160008151811061350357613503614533565b60200101906001600160f81b031916908160001a905350600f60fb1b8160018151811061353257613532614533565b60200101906001600160f81b031916908160001a9053506000613556846002614549565b6135619060016142e4565b90505b60018111156135d9576f181899199a1a9b1b9c1cb0b131b232b360811b85600f166010811061359557613595614533565b1a60f81b8282815181106135ab576135ab614533565b60200101906001600160f81b031916908160001a90535060049490941c936135d281614568565b9050613564565b5083156131605760405162461bcd60e51b815260206004820181905260248201527f537472696e67733a20686578206c656e67746820696e73756666696369656e7460448201526064016109e5565b613631816131cb565b6040516001600160a01b038216907fbc7cd75a20ee27fd9adebab32041f755214dbc6bffa90cc0225b39da2e5c2d3b90600090a250565b60606001600160a01b0383163b6136d05760405162461bcd60e51b815260206004820152602660248201527f416464726573733a2064656c65676174652063616c6c20746f206e6f6e2d636f6044820152651b9d1c9858dd60d21b60648201526084016109e5565b600080846001600160a01b0316846040516136eb919061457f565b600060405180830381855af49150503d8060008114613726576040519150601f19603f3d011682016040523d82523d6000602084013e61372b565b606091505b509150915061375382826040518060600160405280602781526020016146046027913961375c565b95945050505050565b6060831561376b575081613160565b82511561377b5782518084602001fd5b8160405162461bcd60e51b81526004016109e591906138ef565b8280546137a190614044565b90600052602060002090601f0160209004810192826137c35760008555613809565b82601f106137dc57805160ff1916838001178555613809565b82800160010185558215613809579182015b828111156138095782518255916020019190600101906137ee565b5061381592915061384f565b5090565b50805461382590614044565b6000825580601f10613835575050565b601f01602090049060005260206000209081019061150991905b5b808211156138155760008155600101613850565b6001600160e01b03198116811461150957600080fd5b60006020828403121561388c57600080fd5b813561316081613864565b60005b838110156138b257818101518382015260200161389a565b83811115611ebe5750506000910152565b600081518084526138db816020860160208601613897565b601f01601f19169290920160200192915050565b60208152600061316060208301846138c3565b60006020828403121561391457600080fd5b5035919050565b6001600160a01b038116811461150957600080fd5b6000806040838503121561394357600080fd5b823561394e8161391b565b946020939093013593505050565b634e487b7160e01b600052604160045260246000fd5b60405161018081016001600160401b03811182821017156139955761399561395c565b60405290565b600082601f8301126139ac57600080fd5b81356001600160401b03808211156139c6576139c661395c565b604051601f8301601f19908116603f011681019082821181831017156139ee576139ee61395c565b81604052838152866020858801011115613a0757600080fd5b836020870160208301376000602085830101528094505050505092915050565b80356001600160401b0381168114612e5757600080fd5b801515811461150957600080fd5b8035612e5781613a3e565b60006101808284031215613a6a57600080fd5b613a72613972565b905081356001600160401b0380821115613a8b57600080fd5b613a978583860161399b565b8352613aa560208501613a27565b6020840152613ab660408501613a27565b604084015260608401356060840152613ad160808501613a27565b6080840152613ae260a08501613a4c565b60a0840152613af360c08501613a4c565b60c084015260e0840135915080821115613b0c57600080fd5b613b188583860161399b565b60e084015261010091508184013581811115613b3357600080fd5b613b3f8682870161399b565b838501525061012091508184013581811115613b5a57600080fd5b613b668682870161399b565b838501525061014091508184013581811115613b8157600080fd5b613b8d8682870161399b565b838501525061016091508184013581811115613ba857600080fd5b613bb48682870161399b565b8385015250505092915050565b60008060408385031215613bd457600080fd5b8235613bdf8161391b565b915060208301356001600160401b03811115613bfa57600080fd5b613c0685828601613a57565b9150509250929050565b6020815260008251610180806020850152613c2f6101a08501836138c3565b91506020850151613c4b60408601826001600160401b03169052565b5060408501516001600160401b038116606086015250606085015160808501526080850151613c8560a08601826001600160401b03169052565b5060a085015180151560c08601525060c085015180151560e08601525060e0850151601f19610100818786030181880152613cc085846138c3565b945080880151925050610120818786030181880152613cdf85846138c3565b945080880151925050610140818786030181880152613cfe85846138c3565b945080880151925050610160818786030181880152613d1d85846138c3565b908801518782039092018488015293509050613d3983826138c3565b9695505050505050565b600080600060608486031215613d5857600080fd5b8335613d638161391b565b92506020840135613d738161391b565b929592945050506040919091013590565b60008060408385031215613d9757600080fd5b823591506020830135613da98161391b565b809150509250929050565b600060208284031215613dc657600080fd5b81356131608161391b565b60008060408385031215613de457600080fd5b8235613def8161391b565b915060208301356001600160401b03811115613e0a57600080fd5b613c068582860161399b565b600060208284031215613e2857600080fd5b81356001600160401b03811115613e3e57600080fd5b6120288482850161399b565b61018081526000613e5f61018083018f6138c3565b6001600160401b038e1660208401526001600160401b038d1660408401528b6060840152613e98608084018c6001600160401b03169052565b89151560a084015288151560c084015282810360e0840152613eba81896138c3565b9050828103610100840152613ecf81886138c3565b9050828103610120840152613ee481876138c3565b9050828103610140840152613ef981866138c3565b9050828103610160840152613f0e81856138c3565b9f9e505050505050505050505050505050565b60008060408385031215613f3457600080fd5b82359150613f4460208401613a27565b90509250929050565b60008060408385031215613f6057600080fd5b8235613f6b8161391b565b91506020830135613da981613a3e565b60008060008060808587031215613f9157600080fd5b8435613f9c8161391b565b93506020850135613fac8161391b565b92506040850135915060608501356001600160401b03811115613fce57600080fd5b613fda8782880161399b565b91505092959194509250565b60008060408385031215613ff957600080fd5b82356140048161391b565b91506020830135613da98161391b565b6000806040838503121561402757600080fd5b8235915060208301356001600160401b03811115613bfa57600080fd5b600181811c9082168061405857607f821691505b60208210810361407857634e487b7160e01b600052602260045260246000fd5b50919050565b60208082526018908201527f43616c6c6572206973206e6f7420617574686f72697a65640000000000000000604082015260600190565b60208082526010908201526f14185d5cd8589b194e881c185d5cd95960821b604082015260600190565b60208082526031908201527f4552433732313a207472616e736665722063616c6c6572206973206e6f74206f6040820152701ddb995c881b9bdc88185c1c1c9bdd9959607a1b606082015260800190565b6020808252602c908201527f46756e6374696f6e206d7573742062652063616c6c6564207468726f7567682060408201526b19195b1959d85d1958d85b1b60a21b606082015260800190565b6020808252602c908201527f46756e6374696f6e206d7573742062652063616c6c6564207468726f7567682060408201526b6163746976652070726f787960a01b606082015260800190565b60208082526025908201527f43616c6c6572206973206e6f74207468652072656769737472792c206e6f722060408201526437bbb732b960d91b606082015260800190565b6020808252818101527f4f776e61626c653a2063616c6c6572206973206e6f7420746865206f776e6572604082015260600190565b60008351614254818460208801613897565b835190830190614268818360208801613897565b01949350505050565b634e487b7160e01b600052601160045260246000fd5b60006001600160801b038216806142a0576142a0614271565b6000190192915050565b6000602082840312156142bc57600080fd5b81516131608161391b565b6000602082840312156142d957600080fd5b815161316081613a3e565b600082198211156142f7576142f7614271565b500190565b60008282101561430e5761430e614271565b500390565b60006020828403121561432557600080fd5b5051919050565b6020808252602e908201527f496e697469616c697a61626c653a20636f6e747261637420697320616c72656160408201526d191e481a5b9a5d1a585b1a5e995960921b606082015260800190565b6020808252602b908201527f496e697469616c697a61626c653a20636f6e7472616374206973206e6f74206960408201526a6e697469616c697a696e6760a81b606082015260800190565b60208082526032908201527f4552433732313a207472616e7366657220746f206e6f6e20455243373231526560408201527131b2b4bb32b91034b6b83632b6b2b73a32b960711b606082015260800190565b7f416363657373436f6e74726f6c3a206163636f756e742000000000000000000081526000835161444f816017850160208801613897565b7001034b99036b4b9b9b4b733903937b6329607d1b6017918401918201528351614480816028840160208801613897565b01602801949350505050565b6001600160a01b0385811682528416602082015260408101839052608060608201819052600090613d39908301846138c3565b6000602082840312156144d157600080fd5b815161316081613864565b6000600182016144ee576144ee614271565b5060010190565b634e487b7160e01b600052601260045260246000fd5b60008261451a5761451a6144f5565b500490565b60008261452e5761452e6144f5565b500690565b634e487b7160e01b600052603260045260246000fd5b600081600019048311821515161561456357614563614271565b500290565b60008161457757614577614271565b506000190190565b60008251614591818460208701613897565b919091019291505056fe4b796b6c6f732050726f746f636f6c3a20436172626f6e2050726f6a6563742056696e7461676573360894a13ba1a3210667c828492db98dca3e2076cc3735a920a3ca505d382bbc241ecf16d79d0f8dbfb92cbc07fe17840425976cf0667f022fe9877caa831b08416464726573733a206c6f772d6c6576656c2064656c65676174652063616c6c206661696c6564a2646970667358221220d0b63cba19ae529183cdbb42ee1d8860ef922b166257c3e639891ad1c3914faa64736f6c634300080e0033496e697469616c697a61626c653a20636f6e747261637420697320616c726561",
  "devdoc": {
    "kind": "dev",
    "methods": {
      "addNewVintage(address,(string,uint64,uint64,uint256,uint64,bool,bool,string,string,string,string,string))": {
        "details": "vintages can be added by data-managers"
      },
      "approve(address,uint256)": {
        "details": "See {IERC721-approve}."
      },
      "balanceOf(address)": {
        "details": "See {IERC721-balanceOf}."
      },
      "constructor": {
        "custom:oz-upgrades-unsafe-allow": "constructor"
      },
      "exists(uint256)": {
        "details": "Function to check whether a projectVintageToken exists, to be called by other (external) contracts"
      },
      "getApproved(uint256)": {
        "details": "See {IERC721-getApproved}."
      },
      "getProjectVintageDataByTokenId(uint256)": {
        "details": "retrieve all data from VintageData struct"
      },
      "getRoleAdmin(bytes32)": {
        "details": "Returns the admin role that controls `role`. See {grantRole} and {revokeRole}. To change a role's admin, use {_setRoleAdmin}."
      },
      "grantRole(bytes32,address)": {
        "details": "Grants `role` to `account`. If `account` had not been already granted `role`, emits a {RoleGranted} event. Requirements: - the caller must have ``role``'s admin role."
      },
      "hasRole(bytes32,address)": {
        "details": "Returns `true` if `account` has been granted `role`."
      },
      "isApprovedForAll(address,address)": {
        "details": "See {IERC721-isApprovedForAll}."
      },
      "name()": {
        "details": "See {IERC721Metadata-name}."
      },
      "owner()": {
        "details": "Returns the address of the current owner."
      },
      "ownerOf(uint256)": {
        "details": "See {IERC721-ownerOf}."
      },
      "pause()": {
        "details": "wraps _pause(), only Admin"
      },
      "paused()": {
        "details": "Returns true if the contract is paused, and false otherwise."
      },
      "proxiableUUID()": {
        "details": "Implementation of the ERC1822 {proxiableUUID} function. This returns the storage slot used by the implementation. It is used to validate that the this implementation remains valid after an upgrade. IMPORTANT: A proxy pointing at a proxiable contract should not be considered proxiable itself, because this risks bricking a proxy that upgrades to it, by delegating to itself until out of gas. Thus it is critical that this function revert if invoked through a proxy. This is guaranteed by the `notDelegated` modifier."
      },
      "removeVintage(uint256)": {
        "details": "Removes a project-vintage and corresponding data"
      },
      "renounceOwnership()": {
        "details": "Leaves the contract without owner. It will not be possible to call `onlyOwner` functions anymore. Can only be called by the current owner. NOTE: Renouncing ownership will leave the contract without an owner, thereby removing any functionality that is only available to the owner."
      },
      "renounceRole(bytes32,address)": {
        "details": "Revokes `role` from the calling account. Roles are often managed via {grantRole} and {revokeRole}: this function's purpose is to provide a mechanism for accounts to lose their privileges if they are compromised (such as when a trusted device is misplaced). If the calling account had been revoked `role`, emits a {RoleRevoked} event. Requirements: - the caller must be `account`."
      },
      "revokeRole(bytes32,address)": {
        "details": "Revokes `role` from `account`. If `account` had been granted `role`, emits a {RoleRevoked} event. Requirements: - the caller must have ``role``'s admin role."
      },
      "safeTransferFrom(address,address,uint256)": {
        "details": "See {IERC721-safeTransferFrom}."
      },
      "safeTransferFrom(address,address,uint256,bytes)": {
        "details": "See {IERC721-safeTransferFrom}."
      },
      "setApprovalForAll(address,bool)": {
        "details": "See {IERC721-setApprovalForAll}."
      },
      "symbol()": {
        "details": "See {IERC721Metadata-symbol}."
      },
      "tokenURI(uint256)": {
        "details": "Returns the Uniform Resource Identifier (URI) for `tokenId` token. based on the ERC721URIStorage implementation"
      },
      "transferFrom(address,address,uint256)": {
        "details": "See {IERC721-transferFrom}."
      },
      "transferOwnership(address)": {
        "details": "Transfers ownership of the contract to a new account (`newOwner`). Can only be called by the current owner."
      },
      "unpause()": {
        "details": "unpause the system, wraps _unpause(), only Admin"
      },
      "updateProjectVintage(uint256,(string,uint64,uint64,uint256,uint64,bool,bool,string,string,string,string,string))": {
        "details": "Only data-managers can update the data for correction except the sensitive `projectId`"
      },
      "upgradeTo(address)": {
        "details": "Upgrade the implementation of the proxy to `newImplementation`. Calls {_authorizeUpgrade}. Emits an {Upgraded} event."
      },
      "upgradeToAndCall(address,bytes)": {
        "details": "Upgrade the implementation of the proxy to `newImplementation`, and subsequently execute the function call encoded in `data`. Calls {_authorizeUpgrade}. Emits an {Upgraded} event."
      }
    },
    "stateVariables": {
      "MANAGER_ROLE": {
        "details": "All roles related to accessing this contract"
      },
      "VERSION": {
        "details": "Version-related parameters. VERSION keeps track of production releases. VERSION_RELEASE_CANDIDATE keeps track of iterations of a VERSION in our staging environment."
      }
    },
    "version": 1
  },
  "userdoc": {
    "kind": "user",
    "methods": {
      "addNewVintage(address,(string,uint64,uint64,uint256,uint64,bool,bool,string,string,string,string,string))": {
        "notice": "Adds a new carbon project-vintage along with attributes/data"
      },
      "pause()": {
        "notice": "Emergency function to disable contract's core functionality"
      },
      "updateProjectVintage(uint256,(string,uint64,uint64,uint256,uint64,bool,bool,string,string,string,string,string))": {
        "notice": "Updates and existing carbon project"
      }
    },
    "notice": "The CarbonProjectVintages contract stores vintage-specific data The data is stored in structs via ERC721 tokens Most contracts in the protocol query the data stored here Every `vintageData` struct points to a parent `CarbonProject`",
    "version": 1
  },
  "storageLayout": {
    "storage": [
      {
        "astId": 4921,
        "contract": "contracts/CarbonProjectVintages.sol:CarbonProjectVintages",
        "label": "projectVintageTokenCounter",
        "offset": 0,
        "slot": "0",
        "type": "t_uint128"
      },
      {
        "astId": 4923,
        "contract": "contracts/CarbonProjectVintages.sol:CarbonProjectVintages",
        "label": "totalSupply",
        "offset": 16,
        "slot": "0",
        "type": "t_uint128"
      },
      {
        "astId": 4925,
        "contract": "contracts/CarbonProjectVintages.sol:CarbonProjectVintages",
        "label": "contractRegistry",
        "offset": 0,
        "slot": "1",
        "type": "t_address"
      },
      {
        "astId": 4927,
        "contract": "contracts/CarbonProjectVintages.sol:CarbonProjectVintages",
        "label": "baseURI",
        "offset": 0,
        "slot": "2",
        "type": "t_string_storage"
      },
      {
        "astId": 4932,
        "contract": "contracts/CarbonProjectVintages.sol:CarbonProjectVintages",
        "label": "vintageData",
        "offset": 0,
        "slot": "3",
        "type": "t_mapping(t_uint256,t_struct(VintageData)5057_storage)"
      },
      {
        "astId": 4937,
        "contract": "contracts/CarbonProjectVintages.sol:CarbonProjectVintages",
        "label": "validProjectVintageIds",
        "offset": 0,
        "slot": "4",
        "type": "t_mapping(t_uint256,t_bool)"
      },
      {
        "astId": 4944,
        "contract": "contracts/CarbonProjectVintages.sol:CarbonProjectVintages",
        "label": "pvToTokenId",
        "offset": 0,
        "slot": "5",
        "type": "t_mapping(t_uint256,t_mapping(t_uint64,t_uint256))"
      },
      {
        "astId": 932,
        "contract": "contracts/CarbonProjectVintages.sol:CarbonProjectVintages",
        "label": "_initialized",
        "offset": 0,
        "slot": "6",
        "type": "t_uint8"
      },
      {
        "astId": 935,
        "contract": "contracts/CarbonProjectVintages.sol:CarbonProjectVintages",
        "label": "_initializing",
        "offset": 1,
        "slot": "6",
        "type": "t_bool"
      },
      {
        "astId": 2650,
        "contract": "contracts/CarbonProjectVintages.sol:CarbonProjectVintages",
        "label": "__gap",
        "offset": 0,
        "slot": "7",
        "type": "t_array(t_uint256)50_storage"
      },
      {
        "astId": 2957,
        "contract": "contracts/CarbonProjectVintages.sol:CarbonProjectVintages",
        "label": "__gap",
        "offset": 0,
        "slot": "57",
        "type": "t_array(t_uint256)50_storage"
      },
      {
        "astId": 1343,
        "contract": "contracts/CarbonProjectVintages.sol:CarbonProjectVintages",
        "label": "_name",
        "offset": 0,
        "slot": "107",
        "type": "t_string_storage"
      },
      {
        "astId": 1345,
        "contract": "contracts/CarbonProjectVintages.sol:CarbonProjectVintages",
        "label": "_symbol",
        "offset": 0,
        "slot": "108",
        "type": "t_string_storage"
      },
      {
        "astId": 1349,
        "contract": "contracts/CarbonProjectVintages.sol:CarbonProjectVintages",
        "label": "_owners",
        "offset": 0,
        "slot": "109",
        "type": "t_mapping(t_uint256,t_address)"
      },
      {
        "astId": 1353,
        "contract": "contracts/CarbonProjectVintages.sol:CarbonProjectVintages",
        "label": "_balances",
        "offset": 0,
        "slot": "110",
        "type": "t_mapping(t_address,t_uint256)"
      },
      {
        "astId": 1357,
        "contract": "contracts/CarbonProjectVintages.sol:CarbonProjectVintages",
        "label": "_tokenApprovals",
        "offset": 0,
        "slot": "111",
        "type": "t_mapping(t_uint256,t_address)"
      },
      {
        "astId": 1363,
        "contract": "contracts/CarbonProjectVintages.sol:CarbonProjectVintages",
        "label": "_operatorApprovals",
        "offset": 0,
        "slot": "112",
        "type": "t_mapping(t_address,t_mapping(t_address,t_bool))"
      },
      {
        "astId": 2204,
        "contract": "contracts/CarbonProjectVintages.sol:CarbonProjectVintages",
        "label": "__gap",
        "offset": 0,
        "slot": "113",
        "type": "t_array(t_uint256)44_storage"
      },
      {
        "astId": 423,
        "contract": "contracts/CarbonProjectVintages.sol:CarbonProjectVintages",
        "label": "_owner",
        "offset": 0,
        "slot": "157",
        "type": "t_address"
      },
      {
        "astId": 535,
        "contract": "contracts/CarbonProjectVintages.sol:CarbonProjectVintages",
        "label": "__gap",
        "offset": 0,
        "slot": "158",
        "type": "t_array(t_uint256)49_storage"
      },
      {
        "astId": 1224,
        "contract": "contracts/CarbonProjectVintages.sol:CarbonProjectVintages",
        "label": "_paused",
        "offset": 0,
        "slot": "207",
        "type": "t_bool"
      },
      {
        "astId": 1313,
        "contract": "contracts/CarbonProjectVintages.sol:CarbonProjectVintages",
        "label": "__gap",
        "offset": 0,
        "slot": "208",
        "type": "t_array(t_uint256)49_storage"
      },
      {
        "astId": 39,
        "contract": "contracts/CarbonProjectVintages.sol:CarbonProjectVintages",
        "label": "_roles",
        "offset": 0,
        "slot": "257",
        "type": "t_mapping(t_bytes32,t_struct(RoleData)34_storage)"
      },
      {
        "astId": 338,
        "contract": "contracts/CarbonProjectVintages.sol:CarbonProjectVintages",
        "label": "__gap",
        "offset": 0,
        "slot": "258",
        "type": "t_array(t_uint256)49_storage"
      },
      {
        "astId": 914,
        "contract": "contracts/CarbonProjectVintages.sol:CarbonProjectVintages",
        "label": "__gap",
        "offset": 0,
        "slot": "307",
        "type": "t_array(t_uint256)50_storage"
      },
      {
        "astId": 1202,
        "contract": "contracts/CarbonProjectVintages.sol:CarbonProjectVintages",
        "label": "__gap",
        "offset": 0,
        "slot": "357",
        "type": "t_array(t_uint256)50_storage"
      }
    ],
    "types": {
      "t_address": {
        "encoding": "inplace",
        "label": "address",
        "numberOfBytes": "20"
      },
      "t_array(t_uint256)44_storage": {
        "base": "t_uint256",
        "encoding": "inplace",
        "label": "uint256[44]",
        "numberOfBytes": "1408"
      },
      "t_array(t_uint256)49_storage": {
        "base": "t_uint256",
        "encoding": "inplace",
        "label": "uint256[49]",
        "numberOfBytes": "1568"
      },
      "t_array(t_uint256)50_storage": {
        "base": "t_uint256",
        "encoding": "inplace",
        "label": "uint256[50]",
        "numberOfBytes": "1600"
      },
      "t_bool": {
        "encoding": "inplace",
        "label": "bool",
        "numberOfBytes": "1"
      },
      "t_bytes32": {
        "encoding": "inplace",
        "label": "bytes32",
        "numberOfBytes": "32"
      },
      "t_mapping(t_address,t_bool)": {
        "encoding": "mapping",
        "key": "t_address",
        "label": "mapping(address => bool)",
        "numberOfBytes": "32",
        "value": "t_bool"
      },
      "t_mapping(t_address,t_mapping(t_address,t_bool))": {
        "encoding": "mapping",
        "key": "t_address",
        "label": "mapping(address => mapping(address => bool))",
        "numberOfBytes": "32",
        "value": "t_mapping(t_address,t_bool)"
      },
      "t_mapping(t_address,t_uint256)": {
        "encoding": "mapping",
        "key": "t_address",
        "label": "mapping(address => uint256)",
        "numberOfBytes": "32",
        "value": "t_uint256"
      },
      "t_mapping(t_bytes32,t_struct(RoleData)34_storage)": {
        "encoding": "mapping",
        "key": "t_bytes32",
        "label": "mapping(bytes32 => struct AccessControlUpgradeable.RoleData)",
        "numberOfBytes": "32",
        "value": "t_struct(RoleData)34_storage"
      },
      "t_mapping(t_uint256,t_address)": {
        "encoding": "mapping",
        "key": "t_uint256",
        "label": "mapping(uint256 => address)",
        "numberOfBytes": "32",
        "value": "t_address"
      },
      "t_mapping(t_uint256,t_bool)": {
        "encoding": "mapping",
        "key": "t_uint256",
        "label": "mapping(uint256 => bool)",
        "numberOfBytes": "32",
        "value": "t_bool"
      },
      "t_mapping(t_uint256,t_mapping(t_uint64,t_uint256))": {
        "encoding": "mapping",
        "key": "t_uint256",
        "label": "mapping(uint256 => mapping(uint64 => uint256))",
        "numberOfBytes": "32",
        "value": "t_mapping(t_uint64,t_uint256)"
      },
      "t_mapping(t_uint256,t_struct(VintageData)5057_storage)": {
        "encoding": "mapping",
        "key": "t_uint256",
        "label": "mapping(uint256 => struct VintageData)",
        "numberOfBytes": "32",
        "value": "t_struct(VintageData)5057_storage"
      },
      "t_mapping(t_uint64,t_uint256)": {
        "encoding": "mapping",
        "key": "t_uint64",
        "label": "mapping(uint64 => uint256)",
        "numberOfBytes": "32",
        "value": "t_uint256"
      },
      "t_string_storage": {
        "encoding": "bytes",
        "label": "string",
        "numberOfBytes": "32"
      },
      "t_struct(RoleData)34_storage": {
        "encoding": "inplace",
        "label": "struct AccessControlUpgradeable.RoleData",
        "members": [
          {
            "astId": 31,
            "contract": "contracts/CarbonProjectVintages.sol:CarbonProjectVintages",
            "label": "members",
            "offset": 0,
            "slot": "0",
            "type": "t_mapping(t_address,t_bool)"
          },
          {
            "astId": 33,
            "contract": "contracts/CarbonProjectVintages.sol:CarbonProjectVintages",
            "label": "adminRole",
            "offset": 0,
            "slot": "1",
            "type": "t_bytes32"
          }
        ],
        "numberOfBytes": "64"
      },
      "t_struct(VintageData)5057_storage": {
        "encoding": "inplace",
        "label": "struct VintageData",
        "members": [
          {
            "astId": 5034,
            "contract": "contracts/CarbonProjectVintages.sol:CarbonProjectVintages",
            "label": "name",
            "offset": 0,
            "slot": "0",
            "type": "t_string_storage"
          },
          {
            "astId": 5036,
            "contract": "contracts/CarbonProjectVintages.sol:CarbonProjectVintages",
            "label": "startTime",
            "offset": 0,
            "slot": "1",
            "type": "t_uint64"
          },
          {
            "astId": 5038,
            "contract": "contracts/CarbonProjectVintages.sol:CarbonProjectVintages",
            "label": "endTime",
            "offset": 8,
            "slot": "1",
            "type": "t_uint64"
          },
          {
            "astId": 5040,
            "contract": "contracts/CarbonProjectVintages.sol:CarbonProjectVintages",
            "label": "projectTokenId",
            "offset": 0,
            "slot": "2",
            "type": "t_uint256"
          },
          {
            "astId": 5042,
            "contract": "contracts/CarbonProjectVintages.sol:CarbonProjectVintages",
            "label": "totalVintageQuantity",
            "offset": 0,
            "slot": "3",
            "type": "t_uint64"
          },
          {
            "astId": 5044,
            "contract": "contracts/CarbonProjectVintages.sol:CarbonProjectVintages",
            "label": "isCorsiaCompliant",
            "offset": 8,
            "slot": "3",
            "type": "t_bool"
          },
          {
            "astId": 5046,
            "contract": "contracts/CarbonProjectVintages.sol:CarbonProjectVintages",
            "label": "isCCPcompliant",
            "offset": 9,
            "slot": "3",
            "type": "t_bool"
          },
          {
            "astId": 5048,
            "contract": "contracts/CarbonProjectVintages.sol:CarbonProjectVintages",
            "label": "coBenefits",
            "offset": 0,
            "slot": "4",
            "type": "t_string_storage"
          },
          {
            "astId": 5050,
            "contract": "contracts/CarbonProjectVintages.sol:CarbonProjectVintages",
            "label": "correspAdjustment",
            "offset": 0,
            "slot": "5",
            "type": "t_string_storage"
          },
          {
            "astId": 5052,
            "contract": "contracts/CarbonProjectVintages.sol:CarbonProjectVintages",
            "label": "additionalCertification",
            "offset": 0,
            "slot": "6",
            "type": "t_string_storage"
          },
          {
            "astId": 5054,
            "contract": "contracts/CarbonProjectVintages.sol:CarbonProjectVintages",
            "label": "uri",
            "offset": 0,
            "slot": "7",
            "type": "t_string_storage"
          },
          {
            "astId": 5056,
            "contract": "contracts/CarbonProjectVintages.sol:CarbonProjectVintages",
            "label": "registry",
            "offset": 0,
            "slot": "8",
            "type": "t_string_storage"
          }
        ],
        "numberOfBytes": "288"
      },
      "t_uint128": {
        "encoding": "inplace",
        "label": "uint128",
        "numberOfBytes": "16"
      },
      "t_uint256": {
        "encoding": "inplace",
        "label": "uint256",
        "numberOfBytes": "32"
      },
      "t_uint64": {
        "encoding": "inplace",
        "label": "uint64",
        "numberOfBytes": "8"
      },
      "t_uint8": {
        "encoding": "inplace",
        "label": "uint8",
        "numberOfBytes": "1"
      }
    }
  }
}