{
  "address": "0x876Cd2b50Ff76F9cDb48144Eb769bd85DbE59c76",
  "abi": [
    {
      "inputs": [],
      "stateMutability": "nonpayable",
      "type": "constructor"
    },
    {
      "anonymous": false,
      "inputs": [
        {
          "indexed": false,
          "internalType": "address",
          "name": "previousAdmin",
          "type": "address"
        },
        {
          "indexed": false,
          "internalType": "address",
          "name": "newAdmin",
          "type": "address"
        }
      ],
      "name": "AdminChanged",
      "type": "event"
    },
    {
      "anonymous": false,
      "inputs": [
        {
          "indexed": true,
          "internalType": "address",
          "name": "beacon",
          "type": "address"
        }
      ],
      "name": "BeaconUpgraded",
      "type": "event"
    },
    {
      "anonymous": false,
      "inputs": [
        {
          "indexed": false,
          "internalType": "uint8",
          "name": "version",
          "type": "uint8"
        }
      ],
      "name": "Initialized",
      "type": "event"
    },
    {
      "anonymous": false,
      "inputs": [
        {
          "indexed": true,
          "internalType": "address",
          "name": "previousOwner",
          "type": "address"
        },
        {
          "indexed": true,
          "internalType": "address",
          "name": "newOwner",
          "type": "address"
        }
      ],
      "name": "OwnershipTransferred",
      "type": "event"
    },
    {
      "anonymous": false,
      "inputs": [
        {
          "indexed": true,
          "internalType": "bytes32",
          "name": "role",
          "type": "bytes32"
        },
        {
          "indexed": true,
          "internalType": "bytes32",
          "name": "previousAdminRole",
          "type": "bytes32"
        },
        {
          "indexed": true,
          "internalType": "bytes32",
          "name": "newAdminRole",
          "type": "bytes32"
        }
      ],
      "name": "RoleAdminChanged",
      "type": "event"
    },
    {
      "anonymous": false,
      "inputs": [
        {
          "indexed": true,
          "internalType": "bytes32",
          "name": "role",
          "type": "bytes32"
        },
        {
          "indexed": true,
          "internalType": "address",
          "name": "account",
          "type": "address"
        },
        {
          "indexed": true,
          "internalType": "address",
          "name": "sender",
          "type": "address"
        }
      ],
      "name": "RoleGranted",
      "type": "event"
    },
    {
      "anonymous": false,
      "inputs": [
        {
          "indexed": true,
          "internalType": "bytes32",
          "name": "role",
          "type": "bytes32"
        },
        {
          "indexed": true,
          "internalType": "address",
          "name": "account",
          "type": "address"
        },
        {
          "indexed": true,
          "internalType": "address",
          "name": "sender",
          "type": "address"
        }
      ],
      "name": "RoleRevoked",
      "type": "event"
    },
    {
      "anonymous": false,
      "inputs": [
        {
          "indexed": true,
          "internalType": "address",
          "name": "factory",
          "type": "address"
        },
        {
          "indexed": true,
          "internalType": "string",
          "name": "standard",
          "type": "string"
        }
      ],
      "name": "KCO2FactoryAdded",
      "type": "event"
    },
    {
      "anonymous": false,
      "inputs": [
        {
          "indexed": true,
          "internalType": "address",
          "name": "implementation",
          "type": "address"
        }
      ],
      "name": "Upgraded",
      "type": "event"
    },
    {
      "inputs": [],
      "name": "DEFAULT_ADMIN_ROLE",
      "outputs": [
        {
          "internalType": "bytes32",
          "name": "",
          "type": "bytes32"
        }
      ],
      "stateMutability": "view",
      "type": "function"
    },
    {
      "inputs": [],
      "name": "PAUSER_ROLE",
      "outputs": [
        {
          "internalType": "bytes32",
          "name": "",
          "type": "bytes32"
        }
      ],
      "stateMutability": "view",
      "type": "function"
    },
    {
      "inputs": [],
      "name": "VERSION",
      "outputs": [
        {
          "internalType": "string",
          "name": "",
          "type": "string"
        }
      ],
      "stateMutability": "view",
      "type": "function"
    },
    {
      "inputs": [
        {
          "internalType": "address",
          "name": "erc20",
          "type": "address"
        },
        {
          "internalType": "string",
          "name": "standardRegistry",
          "type": "string"
        }
      ],
      "name": "addERC20",
      "outputs": [],
      "stateMutability": "nonpayable",
      "type": "function"
    },
    {
      "inputs": [],
      "name": "carbonOffsetBatchesAddress",
      "outputs": [
        {
          "internalType": "address",
          "name": "",
          "type": "address"
        }
      ],
      "stateMutability": "view",
      "type": "function"
    },
    {
      "inputs": [],
      "name": "carbonProjectVintagesAddress",
      "outputs": [
        {
          "internalType": "address",
          "name": "",
          "type": "address"
        }
      ],
      "stateMutability": "view",
      "type": "function"
    },
    {
      "inputs": [],
      "name": "carbonProjectsAddress",
      "outputs": [
        {
          "internalType": "address",
          "name": "",
          "type": "address"
        }
      ],
      "stateMutability": "view",
      "type": "function"
    },
    {
      "inputs": [
        {
          "internalType": "bytes32",
          "name": "role",
          "type": "bytes32"
        }
      ],
      "name": "getRoleAdmin",
      "outputs": [
        {
          "internalType": "bytes32",
          "name": "",
          "type": "bytes32"
        }
      ],
      "stateMutability": "view",
      "type": "function"
    },
    {
      "inputs": [
        {
          "internalType": "bytes32",
          "name": "role",
          "type": "bytes32"
        },
        {
          "internalType": "address",
          "name": "account",
          "type": "address"
        }
      ],
      "name": "grantRole",
      "outputs": [],
      "stateMutability": "nonpayable",
      "type": "function"
    },
    {
      "inputs": [
        {
          "internalType": "bytes32",
          "name": "role",
          "type": "bytes32"
        },
        {
          "internalType": "address",
          "name": "account",
          "type": "address"
        }
      ],
      "name": "hasRole",
      "outputs": [
        {
          "internalType": "bool",
          "name": "",
          "type": "bool"
        }
      ],
      "stateMutability": "view",
      "type": "function"
    },
    {
      "inputs": [],
      "name": "initialize",
      "outputs": [],
      "stateMutability": "nonpayable",
      "type": "function"
    },
    {
      "inputs": [
        {
          "internalType": "address",
          "name": "erc20",
          "type": "address"
        }
      ],
      "name": "isValidERC20",
      "outputs": [
        {
          "internalType": "bool",
          "name": "",
          "type": "bool"
        }
      ],
      "stateMutability": "view",
      "type": "function"
    },
    {
      "inputs": [
        {
          "internalType": "string",
          "name": "",
          "type": "string"
        }
      ],
      "name": "kyklosCarbonOffsetFactories",
      "outputs": [
        {
          "internalType": "address",
          "name": "",
          "type": "address"
        }
      ],
      "stateMutability": "view",
      "type": "function"
    },
    {
      "inputs": [],
      "name": "kyklosCarbonOffsetsEscrowAddress",
      "outputs": [
        {
          "internalType": "address",
          "name": "",
          "type": "address"
        }
      ],
      "stateMutability": "view",
      "type": "function"
    },
    {
      "inputs": [],
      "name": "kyklosCarbonOffsetsFactoryAddress",
      "outputs": [
        {
          "internalType": "address",
          "name": "",
          "type": "address"
        }
      ],
      "stateMutability": "view",
      "type": "function"
    },
    {
      "inputs": [
        {
          "internalType": "string",
          "name": "standardRegistry",
          "type": "string"
        }
      ],
      "name": "kyklosCarbonOffsetsFactoryAddress",
      "outputs": [
        {
          "internalType": "address",
          "name": "",
          "type": "address"
        }
      ],
      "stateMutability": "view",
      "type": "function"
    },
    {
      "inputs": [],
      "name": "owner",
      "outputs": [
        {
          "internalType": "address",
          "name": "",
          "type": "address"
        }
      ],
      "stateMutability": "view",
      "type": "function"
    },
    {
      "inputs": [
        {
          "internalType": "address",
          "name": "",
          "type": "address"
        }
      ],
      "name": "projectVintageERC20Registry",
      "outputs": [
        {
          "internalType": "bool",
          "name": "",
          "type": "bool"
        }
      ],
      "stateMutability": "view",
      "type": "function"
    },
    {
      "inputs": [],
      "name": "proxiableUUID",
      "outputs": [
        {
          "internalType": "bytes32",
          "name": "",
          "type": "bytes32"
        }
      ],
      "stateMutability": "view",
      "type": "function"
    },
    {
      "inputs": [],
      "name": "renounceOwnership",
      "outputs": [],
      "stateMutability": "nonpayable",
      "type": "function"
    },
    {
      "inputs": [
        {
          "internalType": "bytes32",
          "name": "role",
          "type": "bytes32"
        },
        {
          "internalType": "address",
          "name": "account",
          "type": "address"
        }
      ],
      "name": "renounceRole",
      "outputs": [],
      "stateMutability": "nonpayable",
      "type": "function"
    },
    {
      "inputs": [],
      "name": "retirementCertificatesAddress",
      "outputs": [
        {
          "internalType": "address",
          "name": "",
          "type": "address"
        }
      ],
      "stateMutability": "view",
      "type": "function"
    },
    {
      "inputs": [
        {
          "internalType": "bytes32",
          "name": "role",
          "type": "bytes32"
        },
        {
          "internalType": "address",
          "name": "account",
          "type": "address"
        }
      ],
      "name": "revokeRole",
      "outputs": [],
      "stateMutability": "nonpayable",
      "type": "function"
    },
    {
      "inputs": [
        {
          "internalType": "address",
          "name": "_address",
          "type": "address"
        }
      ],
      "name": "setCarbonOffsetBatchesAddress",
      "outputs": [],
      "stateMutability": "nonpayable",
      "type": "function"
    },
    {
      "inputs": [
        {
          "internalType": "address",
          "name": "_address",
          "type": "address"
        }
      ],
      "name": "setCarbonProjectVintagesAddress",
      "outputs": [],
      "stateMutability": "nonpayable",
      "type": "function"
    },
    {
      "inputs": [
        {
          "internalType": "address",
          "name": "_address",
          "type": "address"
        }
      ],
      "name": "setCarbonProjectsAddress",
      "outputs": [],
      "stateMutability": "nonpayable",
      "type": "function"
    },
    {
      "inputs": [
        {
          "internalType": "address",
          "name": "_address",
          "type": "address"
        }
      ],
      "name": "setRetirementCertificatesAddress",
      "outputs": [],
      "stateMutability": "nonpayable",
      "type": "function"
    },
    {
      "inputs": [
        {
          "internalType": "bytes4",
          "name": "interfaceId",
          "type": "bytes4"
        }
      ],
      "name": "supportsInterface",
      "outputs": [
        {
          "internalType": "bool",
          "name": "",
          "type": "bool"
        }
      ],
      "stateMutability": "view",
      "type": "function"
    },
    {
      "inputs": [
        {
          "internalType": "address",
          "name": "newOwner",
          "type": "address"
        }
      ],
      "name": "transferOwnership",
      "outputs": [],
      "stateMutability": "nonpayable",
      "type": "function"
    },
    {
      "inputs": [
        {
          "internalType": "address",
          "name": "newImplementation",
          "type": "address"
        }
      ],
      "name": "upgradeTo",
      "outputs": [],
      "stateMutability": "nonpayable",
      "type": "function"
    },
    {
      "inputs": [
        {
          "internalType": "address",
          "name": "newImplementation",
          "type": "address"
        },
        {
          "internalType": "bytes",
          "name": "data",
          "type": "bytes"
        }
      ],
      "name": "upgradeToAndCall",
      "outputs": [],
      "stateMutability": "payable",
      "type": "function"
    }
  ],
  "numDeployments": 1,
  "solcInputHash": "1fefe49cf5bfec95ec855ee89ec47523",
  "bytecode": "0x60a0604052306080523480156200001557600080fd5b506200002062000026565b62000156565b6200003260ff62000035565b50565b60008054610100900460ff1615620000ce578160ff1660011480156200006e57506200006c306200014760201b62000c191760201c565b155b620000c65760405162461bcd60e51b815260206004820152602e602482015260008051602062001b9e83398151915260448201526d191e481a5b9a5d1a585b1a5e995960921b60648201526084015b60405180910390fd5b506000919050565b60005460ff8084169116106200012d5760405162461bcd60e51b815260206004820152602e602482015260008051602062001b9e83398151915260448201526d191e481a5b9a5d1a585b1a5e995960921b6064820152608401620000bd565b506000805460ff191660ff92909216919091179055600190565b6001600160a01b03163b151590565b608051611a106200018e6000396000818161071301528181610753015281816107f20152818161083201526108c10152611a106000f3fe6080604052600436106101d85760003560e01c80636989d801116101025780639882006b11610095578063d547741f11610064578063d547741f1461052a578063e63ab1e91461054a578063f2fde38b1461057e578063ffa1ad741461059e57600080fd5b80639882006b146104bb578063a0ad2599146104d6578063a0af2560146104f6578063a217fddf1461051557600080fd5b8063746f62da116100d1578063746f62da146104475780638129fc1c146104685780638da5cb5b1461047d57806391d148541461049b57600080fd5b80636989d801146103f25780636cd8f78e14610298578063715018a61461041257806371b15b1c1461042757600080fd5b8063344dd6cb1161017a5780634be4e3dd116101495780634be4e3dd146103695780634f1ef2861461038857806352d1902d1461039b578063589a9ae5146103b057600080fd5b8063344dd6cb1461030a57806336568abe146103295780633659cfe614610349578063376b5dce1461029857600080fd5b80631cf743db116101b65780631cf743db146102675780631fd0699a14610298578063248a9ca3146102ac5780632f2ff15d146102ea57600080fd5b806301157a83146101dd57806301f07b2f1461021557806301ffc9a714610237575b600080fd5b3480156101e957600080fd5b5061012e546001600160a01b03165b6040516001600160a01b0390911681526020015b60405180910390f35b34801561022157600080fd5b5061023561023036600461146b565b6105dc565b005b34801561024357600080fd5b50610257610252366004611486565b61062e565b604051901515815260200161020c565b34801561027357600080fd5b5061025761028236600461146b565b6101316020526000908152604090205460ff1681565b3480156102a457600080fd5b5060006101f8565b3480156102b857600080fd5b506102dc6102c73660046114b0565b60009081526097602052604090206001015490565b60405190815260200161020c565b3480156102f657600080fd5b506102356103053660046114c9565b610665565b34801561031657600080fd5b506102356103253660046115a1565b5050565b34801561033557600080fd5b506102356103443660046114c9565b61068f565b34801561035557600080fd5b5061023561036436600461146b565b610709565b34801561037557600080fd5b5061012d546001600160a01b03166101f8565b6102356103963660046115ef565b6107e8565b3480156103a757600080fd5b506102dc6108b4565b3480156103bc57600080fd5b506101f86103cb366004611647565b8051602081830181018051610132825292820191909301209152546001600160a01b031681565b3480156103fe57600080fd5b5061023561040d36600461146b565b610967565b34801561041e57600080fd5b506102356109b0565b34801561043357600080fd5b5061023561044236600461146b565b6109e6565b34801561045357600080fd5b5061025761046236600461146b565b50600090565b34801561047457600080fd5b50610235610a59565b34801561048957600080fd5b506033546001600160a01b03166101f8565b3480156104a757600080fd5b506102576104b63660046114c9565b610ae8565b3480156104c757600080fd5b506101f8610462366004611647565b3480156104e257600080fd5b506102356104f136600461146b565b610b13565b34801561050257600080fd5b5061012f546001600160a01b03166101f8565b34801561052157600080fd5b506102dc600081565b34801561053657600080fd5b506102356105453660046114c9565b610b5c565b34801561055657600080fd5b506102dc7f65d7a28e3265b37a6474929f336521b332c1681b933f6cb9f3376673440d862a81565b34801561058a57600080fd5b5061023561059936600461146b565b610b81565b3480156105aa57600080fd5b506105cf604051806040016040528060058152602001640312e302e360dc1b81525081565b60405161020c91906116b0565b6001600160a01b03811661060b5760405162461bcd60e51b8152600401610602906116e3565b60405180910390fd5b61012f80546001600160a01b0319166001600160a01b0392909216919091179055565b60006001600160e01b03198216637965db0b60e01b148061065f57506301ffc9a760e01b6001600160e01b03198316145b92915050565b60008281526097602052604090206001015461068081610c28565b61068a8383610c32565b505050565b6001600160a01b03811633146106ff5760405162461bcd60e51b815260206004820152602f60248201527f416363657373436f6e74726f6c3a2063616e206f6e6c792072656e6f756e636560448201526e103937b632b9903337b91039b2b63360891b6064820152608401610602565b6103258282610cb8565b6001600160a01b037f00000000000000000000000000000000000000000000000000000000000000001630036107515760405162461bcd60e51b815260040161060290611709565b7f00000000000000000000000000000000000000000000000000000000000000006001600160a01b031661079a600080516020611994833981519152546001600160a01b031690565b6001600160a01b0316146107c05760405162461bcd60e51b815260040161060290611755565b6107c981610d1f565b604080516000808252602082019092526107e591839190610d49565b50565b6001600160a01b037f00000000000000000000000000000000000000000000000000000000000000001630036108305760405162461bcd60e51b815260040161060290611709565b7f00000000000000000000000000000000000000000000000000000000000000006001600160a01b0316610879600080516020611994833981519152546001600160a01b031690565b6001600160a01b03161461089f5760405162461bcd60e51b815260040161060290611755565b6108a882610d1f565b61032582826001610d49565b6000306001600160a01b037f000000000000000000000000000000000000000000000000000000000000000016146109545760405162461bcd60e51b815260206004820152603860248201527f555550535570677261646561626c653a206d757374206e6f742062652063616c60448201527f6c6564207468726f7567682064656c656761746563616c6c00000000000000006064820152608401610602565b5060008051602061199483398151915290565b6001600160a01b03811661098d5760405162461bcd60e51b8152600401610602906116e3565b61012d80546001600160a01b0319166001600160a01b0392909216919091179055565b6033546001600160a01b031633146109da5760405162461bcd60e51b8152600401610602906117a1565b6109e46000610eb4565b565b6033546001600160a01b03163314610a105760405162461bcd60e51b8152600401610602906117a1565b6001600160a01b038116610a365760405162461bcd60e51b8152600401610602906116e3565b61013080546001600160a01b0319166001600160a01b0392909216919091179055565b6000610a656001610f06565b90508015610a7d576000805461ff0019166101001790555b610a85610f93565b610a8d610fc2565b610a95610fc2565b610aa0600033610c32565b80156107e5576000805461ff0019169055604051600181527f7f26b83ff96e1f2b6a682f133852f6798a09c465da95921460cefb38474024989060200160405180910390a150565b60009182526097602090815260408084206001600160a01b0393909316845291905290205460ff1690565b6001600160a01b038116610b395760405162461bcd60e51b8152600401610602906116e3565b61012e80546001600160a01b0319166001600160a01b0392909216919091179055565b600082815260976020526040902060010154610b7781610c28565b61068a8383610cb8565b6033546001600160a01b03163314610bab5760405162461bcd60e51b8152600401610602906117a1565b6001600160a01b038116610c105760405162461bcd60e51b815260206004820152602660248201527f4f776e61626c653a206e6577206f776e657220697320746865207a65726f206160448201526564647265737360d01b6064820152608401610602565b6107e581610eb4565b6001600160a01b03163b151590565b6107e58133610fe9565b610c3c8282610ae8565b6103255760008281526097602090815260408083206001600160a01b03851684529091529020805460ff19166001179055610c743390565b6001600160a01b0316816001600160a01b0316837f2f8788117e7eff1d82e926ec794901d17c78024a50270940304540a733656f0d60405160405180910390a45050565b610cc28282610ae8565b156103255760008281526097602090815260408083206001600160a01b0385168085529252808320805460ff1916905551339285917ff6391f5c32d9c69d2a47ea670b442974b53935d1edc7fd64eb21e047a839171b9190a45050565b6033546001600160a01b031633146107e55760405162461bcd60e51b8152600401610602906117a1565b7f4910fdfa16fed3260ed0e7147f7cc6da11a60208b5b9406d12a635614ffd91435460ff1615610d7c5761068a8361104d565b826001600160a01b03166352d1902d6040518163ffffffff1660e01b8152600401602060405180830381865afa925050508015610dd6575060408051601f3d908101601f19168201909252610dd3918101906117d6565b60015b610e395760405162461bcd60e51b815260206004820152602e60248201527f45524331393637557067726164653a206e657720696d706c656d656e7461746960448201526d6f6e206973206e6f74205555505360901b6064820152608401610602565b6000805160206119948339815191528114610ea85760405162461bcd60e51b815260206004820152602960248201527f45524331393637557067726164653a20756e737570706f727465642070726f786044820152681a58589b195555525160ba1b6064820152608401610602565b5061068a8383836110e9565b603380546001600160a01b038381166001600160a01b0319831681179093556040519116919082907f8be0079c531659141344cd1fd0a4f28419497f9722a3daafe3b4186f6b6457e090600090a35050565b60008054610100900460ff1615610f4d578160ff166001148015610f295750303b155b610f455760405162461bcd60e51b8152600401610602906117ef565b506000919050565b60005460ff808416911610610f745760405162461bcd60e51b8152600401610602906117ef565b506000805460ff191660ff92909216919091179055600190565b919050565b600054610100900460ff16610fba5760405162461bcd60e51b81526004016106029061183d565b6109e4611114565b600054610100900460ff166109e45760405162461bcd60e51b81526004016106029061183d565b610ff38282610ae8565b6103255761100b816001600160a01b03166014611144565b611016836020611144565b604051602001611027929190611888565b60408051601f198184030181529082905262461bcd60e51b8252610602916004016116b0565b6001600160a01b0381163b6110ba5760405162461bcd60e51b815260206004820152602d60248201527f455243313936373a206e657720696d706c656d656e746174696f6e206973206e60448201526c1bdd08184818dbdb9d1c9858dd609a1b6064820152608401610602565b60008051602061199483398151915280546001600160a01b0319166001600160a01b0392909216919091179055565b6110f2836112e7565b6000825111806110ff5750805b1561068a5761110e8383611327565b50505050565b600054610100900460ff1661113b5760405162461bcd60e51b81526004016106029061183d565b6109e433610eb4565b60606000611153836002611913565b61115e906002611932565b67ffffffffffffffff811115611176576111766114f5565b6040519080825280601f01601f1916602001820160405280156111a0576020820181803683370190505b509050600360fc1b816000815181106111bb576111bb61194a565b60200101906001600160f81b031916908160001a905350600f60fb1b816001815181106111ea576111ea61194a565b60200101906001600160f81b031916908160001a905350600061120e846002611913565b611219906001611932565b90505b6001811115611291576f181899199a1a9b1b9c1cb0b131b232b360811b85600f166010811061124d5761124d61194a565b1a60f81b8282815181106112635761126361194a565b60200101906001600160f81b031916908160001a90535060049490941c9361128a81611960565b905061121c565b5083156112e05760405162461bcd60e51b815260206004820181905260248201527f537472696e67733a20686578206c656e67746820696e73756666696369656e746044820152606401610602565b9392505050565b6112f08161104d565b6040516001600160a01b038216907fbc7cd75a20ee27fd9adebab32041f755214dbc6bffa90cc0225b39da2e5c2d3b90600090a250565b60606001600160a01b0383163b61138f5760405162461bcd60e51b815260206004820152602660248201527f416464726573733a2064656c65676174652063616c6c20746f206e6f6e2d636f6044820152651b9d1c9858dd60d21b6064820152608401610602565b600080846001600160a01b0316846040516113aa9190611977565b600060405180830381855af49150503d80600081146113e5576040519150601f19603f3d011682016040523d82523d6000602084013e6113ea565b606091505b509150915061141282826040518060600160405280602781526020016119b46027913961141b565b95945050505050565b6060831561142a5750816112e0565b82511561143a5782518084602001fd5b8160405162461bcd60e51b815260040161060291906116b0565b80356001600160a01b0381168114610f8e57600080fd5b60006020828403121561147d57600080fd5b6112e082611454565b60006020828403121561149857600080fd5b81356001600160e01b0319811681146112e057600080fd5b6000602082840312156114c257600080fd5b5035919050565b600080604083850312156114dc57600080fd5b823591506114ec60208401611454565b90509250929050565b634e487b7160e01b600052604160045260246000fd5b600067ffffffffffffffff80841115611526576115266114f5565b604051601f8501601f19908116603f0116810190828211818310171561154e5761154e6114f5565b8160405280935085815286868601111561156757600080fd5b858560208301376000602087830101525050509392505050565b600082601f83011261159257600080fd5b6112e08383356020850161150b565b600080604083850312156115b457600080fd5b6115bd83611454565b9150602083013567ffffffffffffffff8111156115d957600080fd5b6115e585828601611581565b9150509250929050565b6000806040838503121561160257600080fd5b61160b83611454565b9150602083013567ffffffffffffffff81111561162757600080fd5b8301601f8101851361163857600080fd5b6115e58582356020840161150b565b60006020828403121561165957600080fd5b813567ffffffffffffffff81111561167057600080fd5b61167c84828501611581565b949350505050565b60005b8381101561169f578181015183820152602001611687565b8381111561110e5750506000910152565b60208152600082518060208401526116cf816040850160208701611684565b601f01601f19169190910160400192915050565b6020808252600c908201526b5a65726f206164647265737360a01b604082015260600190565b6020808252602c908201527f46756e6374696f6e206d7573742062652063616c6c6564207468726f7567682060408201526b19195b1959d85d1958d85b1b60a21b606082015260800190565b6020808252602c908201527f46756e6374696f6e206d7573742062652063616c6c6564207468726f7567682060408201526b6163746976652070726f787960a01b606082015260800190565b6020808252818101527f4f776e61626c653a2063616c6c6572206973206e6f7420746865206f776e6572604082015260600190565b6000602082840312156117e857600080fd5b5051919050565b6020808252602e908201527f496e697469616c697a61626c653a20636f6e747261637420697320616c72656160408201526d191e481a5b9a5d1a585b1a5e995960921b606082015260800190565b6020808252602b908201527f496e697469616c697a61626c653a20636f6e7472616374206973206e6f74206960408201526a6e697469616c697a696e6760a81b606082015260800190565b7f416363657373436f6e74726f6c3a206163636f756e74200000000000000000008152600083516118c0816017850160208801611684565b7001034b99036b4b9b9b4b733903937b6329607d1b60179184019182015283516118f1816028840160208801611684565b01602801949350505050565b634e487b7160e01b600052601160045260246000fd5b600081600019048311821515161561192d5761192d6118fd565b500290565b60008219821115611945576119456118fd565b500190565b634e487b7160e01b600052603260045260246000fd5b60008161196f5761196f6118fd565b506000190190565b60008251611989818460208701611684565b919091019291505056fe360894a13ba1a3210667c828492db98dca3e2076cc3735a920a3ca505d382bbc416464726573733a206c6f772d6c6576656c2064656c65676174652063616c6c206661696c6564a2646970667358221220f4d51a1532f2eb3d7373d95258c0c6df0d0c53dfb15568053bd9e3dde8669ae064736f6c634300080e0033496e697469616c697a61626c653a20636f6e747261637420697320616c726561",
  "devdoc": {
    "details": "The KyklosContractRegistry is queried by other contracts for current addresses",
    "kind": "dev",
    "methods": {
      "constructor": {
        "custom:oz-upgrades-unsafe-allow": "constructor"
      },
      "getRoleAdmin(bytes32)": {
        "details": "Returns the admin role that controls `role`. See {grantRole} and {revokeRole}. To change a role's admin, use {_setRoleAdmin}."
      },
      "grantRole(bytes32,address)": {
        "details": "Grants `role` to `account`. If `account` had not been already granted `role`, emits a {RoleGranted} event. Requirements: - the caller must have ``role``'s admin role."
      },
      "hasRole(bytes32,address)": {
        "details": "Returns `true` if `account` has been granted `role`."
      },
      "owner()": {
        "details": "Returns the address of the current owner."
      },
      "proxiableUUID()": {
        "details": "Implementation of the ERC1822 {proxiableUUID} function. This returns the storage slot used by the implementation. It is used to validate that the this implementation remains valid after an upgrade. IMPORTANT: A proxy pointing at a proxiable contract should not be considered proxiable itself, because this risks bricking a proxy that upgrades to it, by delegating to itself until out of gas. Thus it is critical that this function revert if invoked through a proxy. This is guaranteed by the `notDelegated` modifier."
      },
      "renounceOwnership()": {
        "details": "Leaves the contract without owner. It will not be possible to call `onlyOwner` functions anymore. Can only be called by the current owner. NOTE: Renouncing ownership will leave the contract without an owner, thereby removing any functionality that is only available to the owner."
      },
      "renounceRole(bytes32,address)": {
        "details": "Revokes `role` from the calling account. Roles are often managed via {grantRole} and {revokeRole}: this function's purpose is to provide a mechanism for accounts to lose their privileges if they are compromised (such as when a trusted device is misplaced). If the calling account had been revoked `role`, emits a {RoleRevoked} event. Requirements: - the caller must be `account`."
      },
      "revokeRole(bytes32,address)": {
        "details": "Revokes `role` from `account`. If `account` had been granted `role`, emits a {RoleRevoked} event. Requirements: - the caller must have ``role``'s admin role."
      },
      "supportsInterface(bytes4)": {
        "details": "See {IERC165-supportsInterface}."
      },
      "transferOwnership(address)": {
        "details": "Transfers ownership of the contract to a new account (`newOwner`). Can only be called by the current owner."
      },
      "upgradeTo(address)": {
        "details": "Upgrade the implementation of the proxy to `newImplementation`. Calls {_authorizeUpgrade}. Emits an {Upgraded} event."
      },
      "upgradeToAndCall(address,bytes)": {
        "details": "Upgrade the implementation of the proxy to `newImplementation`, and subsequently execute the function call encoded in `data`. Calls {_authorizeUpgrade}. Emits an {Upgraded} event."
      }
    },
    "stateVariables": {
      "PAUSER_ROLE": {
        "details": "All roles related to accessing this contract"
      },
      "VERSION": {
        "details": "Version-related parameters."
      }
    },
    "version": 1
  },
  "userdoc": {
    "kind": "user",
    "methods": {},
    "version": 1
  },
  "storageLayout": {
    "storage": [
      {
        "astId": 932,
        "contract": "contracts/KyklosRegistry.sol:KyklosContractRegistry",
        "label": "_initialized",
        "offset": 0,
        "slot": "0",
        "type": "t_uint8"
      },
      {
        "astId": 935,
        "contract": "contracts/KyklosRegistry.sol:KyklosContractRegistry",
        "label": "_initializing",
        "offset": 1,
        "slot": "0",
        "type": "t_bool"
      },
      {
        "astId": 2650,
        "contract": "contracts/KyklosRegistry.sol:KyklosContractRegistry",
        "label": "__gap",
        "offset": 0,
        "slot": "1",
        "type": "t_array(t_uint256)50_storage"
      },
      {
        "astId": 423,
        "contract": "contracts/KyklosRegistry.sol:KyklosContractRegistry",
        "label": "_owner",
        "offset": 0,
        "slot": "51",
        "type": "t_address"
      },
      {
        "astId": 535,
        "contract": "contracts/KyklosRegistry.sol:KyklosContractRegistry",
        "label": "__gap",
        "offset": 0,
        "slot": "52",
        "type": "t_array(t_uint256)49_storage"
      },
      {
        "astId": 2957,
        "contract": "contracts/KyklosRegistry.sol:KyklosContractRegistry",
        "label": "__gap",
        "offset": 0,
        "slot": "101",
        "type": "t_array(t_uint256)50_storage"
      },
      {
        "astId": 39,
        "contract": "contracts/KyklosRegistry.sol:KyklosContractRegistry",
        "label": "_roles",
        "offset": 0,
        "slot": "151",
        "type": "t_mapping(t_bytes32,t_struct(RoleData)34_storage)"
      },
      {
        "astId": 338,
        "contract": "contracts/KyklosRegistry.sol:KyklosContractRegistry",
        "label": "__gap",
        "offset": 0,
        "slot": "152",
        "type": "t_array(t_uint256)49_storage"
      },
      {
        "astId": 914,
        "contract": "contracts/KyklosRegistry.sol:KyklosContractRegistry",
        "label": "__gap",
        "offset": 0,
        "slot": "201",
        "type": "t_array(t_uint256)50_storage"
      },
      {
        "astId": 1202,
        "contract": "contracts/KyklosRegistry.sol:KyklosContractRegistry",
        "label": "__gap",
        "offset": 0,
        "slot": "251",
        "type": "t_array(t_uint256)50_storage"
      },
      {
        "astId": 5094,
        "contract": "contracts/KyklosRegistry.sol:KyklosContractRegistry",
        "label": "_carbonOffsetBatchesAddress",
        "offset": 0,
        "slot": "301",
        "type": "t_address"
      },
      {
        "astId": 5096,
        "contract": "contracts/KyklosRegistry.sol:KyklosContractRegistry",
        "label": "_carbonProjectsAddress",
        "offset": 0,
        "slot": "302",
        "type": "t_address"
      },
      {
        "astId": 5098,
        "contract": "contracts/KyklosRegistry.sol:KyklosContractRegistry",
        "label": "_carbonProjectVintagesAddress",
        "offset": 0,
        "slot": "303",
        "type": "t_address"
      },
      {
        "astId": 5100,
        "contract": "contracts/KyklosRegistry.sol:KyklosContractRegistry",
        "label": "_retirementCertificatesAddress",
        "offset": 0,
        "slot": "304",
        "type": "t_address"
      },
      {
        "astId": 5104,
        "contract": "contracts/KyklosRegistry.sol:KyklosContractRegistry",
        "label": "projectVintageERC20Registry",
        "offset": 0,
        "slot": "305",
        "type": "t_mapping(t_address,t_bool)"
      },
      {
        "astId": 5108,
        "contract": "contracts/KyklosRegistry.sol:KyklosContractRegistry",
        "label": "kyklosCarbonOffsetFactories",
        "offset": 0,
        "slot": "306",
        "type": "t_mapping(t_string_memory_ptr,t_address)"
      },
      {
        "astId": 5110,
        "contract": "contracts/KyklosRegistry.sol:KyklosContractRegistry",
        "label": "_kyklosCarbonOffsetsEscrowAddress",
        "offset": 0,
        "slot": "307",
        "type": "t_address"
      },
      {
        "astId": 5113,
        "contract": "contracts/KyklosRegistry.sol:KyklosContractRegistry",
        "label": "standardRegistries",
        "offset": 0,
        "slot": "308",
        "type": "t_array(t_string_storage)dyn_storage"
      }
    ],
    "types": {
      "t_address": {
        "encoding": "inplace",
        "label": "address",
        "numberOfBytes": "20"
      },
      "t_array(t_string_storage)dyn_storage": {
        "base": "t_string_storage",
        "encoding": "dynamic_array",
        "label": "string[]",
        "numberOfBytes": "32"
      },
      "t_array(t_uint256)49_storage": {
        "base": "t_uint256",
        "encoding": "inplace",
        "label": "uint256[49]",
        "numberOfBytes": "1568"
      },
      "t_array(t_uint256)50_storage": {
        "base": "t_uint256",
        "encoding": "inplace",
        "label": "uint256[50]",
        "numberOfBytes": "1600"
      },
      "t_bool": {
        "encoding": "inplace",
        "label": "bool",
        "numberOfBytes": "1"
      },
      "t_bytes32": {
        "encoding": "inplace",
        "label": "bytes32",
        "numberOfBytes": "32"
      },
      "t_mapping(t_address,t_bool)": {
        "encoding": "mapping",
        "key": "t_address",
        "label": "mapping(address => bool)",
        "numberOfBytes": "32",
        "value": "t_bool"
      },
      "t_mapping(t_bytes32,t_struct(RoleData)34_storage)": {
        "encoding": "mapping",
        "key": "t_bytes32",
        "label": "mapping(bytes32 => struct AccessControlUpgradeable.RoleData)",
        "numberOfBytes": "32",
        "value": "t_struct(RoleData)34_storage"
      },
      "t_mapping(t_string_memory_ptr,t_address)": {
        "encoding": "mapping",
        "key": "t_string_memory_ptr",
        "label": "mapping(string => address)",
        "numberOfBytes": "32",
        "value": "t_address"
      },
      "t_string_memory_ptr": {
        "encoding": "bytes",
        "label": "string",
        "numberOfBytes": "32"
      },
      "t_string_storage": {
        "encoding": "bytes",
        "label": "string",
        "numberOfBytes": "32"
      },
      "t_struct(RoleData)34_storage": {
        "encoding": "inplace",
        "label": "struct AccessControlUpgradeable.RoleData",
        "members": [
          {
            "astId": 31,
            "contract": "contracts/KyklosRegistry.sol:KyklosContractRegistry",
            "label": "members",
            "offset": 0,
            "slot": "0",
            "type": "t_mapping(t_address,t_bool)"
          },
          {
            "astId": 33,
            "contract": "contracts/KyklosRegistry.sol:KyklosContractRegistry",
            "label": "adminRole",
            "offset": 0,
            "slot": "1",
            "type": "t_bytes32"
          }
        ],
        "numberOfBytes": "64"
      },
      "t_uint256": {
        "encoding": "inplace",
        "label": "uint256",
        "numberOfBytes": "32"
      },
      "t_uint8": {
        "encoding": "inplace",
        "label": "uint8",
        "numberOfBytes": "1"
      }
    }
  }
}